:020000040800F2
:1000000058BF012461040008991A0108D1E70008CB
:10001000911A010879230008615A010800000000C4
:100020000000000000000000000000008130010816
:100030001933000800000000C1280108013101083F
:100040007F0400087F0400087F0400087F04000884
:100050007F0400087F0400087F0400087F04000874
:100060007F0400087F0400087F040008A12700081F
:10007000B1270008C12700087F040008D127000825
:10008000E12700087F0400087F040008C13400084D
:10009000E1340008D1340008F13400087F0400087E
:1000A0007F0400087F0400087F0400087F04000824
:1000B000793301087F0400087F0400087F040008EA
:1000C0007F0400087F0400087F0400087F04000804
:1000D000892E010829550108F95601087F040008F6
:1000E0007F0400087F040008000000008933010835
:1000F0007F0400087F0400087F0400087F040008D4
:100100007F0400087F0400087F0400087F040008C3
:100110007F0400087F0400087F0400087F040008B3
:10012000F1270008012800087F0400087F04000868
:100130007F0400087F0400087F0400087F04000893
:1001400000000000000000000000000000000000AF
:100150007F0400087F0400087F0400087F04000873
:100160007F0400087F0400087F0400087F04000863
:100170007F0400087F0400087F04000800000000DE
:100180007F0400087F0400087F0400087F04000843
:100190007F0400087F0400087F0400087F04000833
:1001A0007F0400087F0400087F04000800000000AE
:1001B0007F0400087F0400087F0400087F04000813
:1001C0007F0400087F040008000000000000000019
:1001D00000000000000000007F0400080000000094
:1001E000000000000000000000000000000000000F
:1001F00000000000000000007F0400087F040008E9
:100200007F0400087F040008000000007F0400084D
:100210007F0400087F0400087F0400087F040008B2
:100220007F040008000000007F04000800000000B8
:100230007F0400087F040008000000007F0400081D
:100240007F0400087F0400087F0400087F04000882
:100250007F0400087F0400087F0400087F04000872
:100260007F0400087F0400087F0400087F04000862
:100270007F0400087F0400087F04000800000000DD
:100280007F0400087F0400087F0400087F04000842
:10029000000000007F0400087F0400080000000048
:1002A000000000007F0400087F0400087F040008AD
:1002B0007F0400087F0400087F040008013500085F
:1002C000113500087F0400087F04000800F002F8E0
:1002D00000F0B6F80AA090E8000C82448344AAF12A
:1002E0000107DA4501D100F0ABF8AFF2090EBAE828
:1002F0000F0013F0010F18BFFB1A43F0010318475A
:10030000E4B0010004B101000A444FF0000C10F801
:10031000013B13F0070408BF10F8014B1D1108BF83
:1003200010F8015B641E05D010F8016B641E01F823
:10033000016BF9D113F0080F1EBF10F8014BAD1C73
:100340000C1B09D16D1E58BF01F801CBFAD505E091
:1003500014F8016B01F8016B6D1EF9D59142D6D3EB
:10036000704700000023002400250026103A28BF13
:1003700078C1FBD8520728BF30C148BF0B60704717
:100380006E2900F0FF83702900F04185662919F07D
:10039000C087652919F0BD87672919F0BA876129D7
:1003A00019F0B98703681B0A28BF41F08001692949
:1003B00000F0AC83642900F0A983752900F0A683BE
:1003C0006F2900F0CF84782900F00D85E92900F02D
:1003D0006984E42900F06684F52900F06384EF293C
:1003E00000F0CC84F82900F00C850368DB0928BFF5
:1003F00041F08001632901F05182732901F0568296
:10040000E32901F06182F32901F066820020704740
:100410001FB519F071FF9DE8030000F0D3FA01F059
:10042000BFFA04000020002119F050FF401C60605A
:100430000020002119F034FFE0601FBD10B510BD91
:1004400001F081FA1146FFF7E3FF17F099FC01F084
:100450005DFB03B4FFF7F2FF03BC00F0C3FD000037
:100460000A4880470A4880470A480047FEE7FEE7F7
:10047000FEE7FEE7FEE7FEE7FEE7FEE7FEE7FEE754
:1004800005480649064A074B7047000099340008A2
:1004900011320108CD02000858A7012458BF0124D9
:1004A00058AF012458AF012470B5064600F06EFA2B
:1004B000056806F10B0020F00704B4429CBF002041
:1004C00070BD2B466A68BAB11068A04210D304F11F
:1004D000080188423CBF5068586007D35168101922
:1004E00041601168091B016058601460101D70BDE7
:1004F00013465268002AE7D12146284600F04EFAFA
:100500000028DED170BD70B50446051F00F03EFA2C
:100510000068002C14BF446870BD002C18BFAC42AA
:100520003CBF20466468F8D301680A18AA4218BF85
:10053000456003D12A6805461144016028684119C5
:10054000A1421CBF6C6070BD61686960216808448D
:10055000286070BD53EA020C00F069802DE9F04B71
:100560004FF00006002B1FBFB3FA83F503FA05F422
:1005700024FA05F65E4012BF1643B2FA82F502FA7B
:1005800005F4C5F120051EBF22FA05FC44EA0C045F
:10059000203556EA044C4FEA144418BF641C4FF04F
:1005A00000084FF00009904271EB030C39D3002989
:1005B00019BFB1FA81F701FA07F6B0FA80F700FA2D
:1005C00007F6C7F120071EBF20FA07FC46EA0C0613
:1005D0002037B6FBF4FCA7EB0507103F07F01F0B15
:1005E000CBF120062CFA06F60CFA0BFB44BFB346FF
:1005F0000026202FA4BF5E464FF0000B5BEA060CDE
:1006000008BF4FF0010B19EB0B0948EB0608ABFBD9
:10061000027C06FB02CC0BFB03CCC01B71EB0C0174
:10062000C1E70B46024641464846BDE8F08B13B58C
:10063000084318BF4FF0FF300146AFF30080BDE81C
:100640001C4070470FB41CB5084B06AA7B44694692
:100650000090059800F0AFFA04460020694600F0CB
:10066000BDFA20461CBC5DF814FB00008D0500009F
:100670000EB5054614460E4613A000F0A2FC28460F
:1006800000F09FFC16A000F09CFC304600F099FCA6
:1006900015A000F096FC00218DF80B100A210DF139
:1006A0000A008DF80A1008E094FBF1F201FB1242F7
:1006B00094FBF1F4303200F8012D002CF4DC00F052
:1006C00080FC00F073FC00002A2A2A206173736505
:1006D0007274696F6E206661696C65643A2000000F
:1006E0002C2066696C6520002C206C696E652000EA
:1006F00010B5431C02E010F8011B71B18107FAD15B
:100700004FF0013202C88C1A8C4314EAC211F9D09E
:10071000C01A0A0603D0C01E10BDC01A10BD0A04BC
:1007200001D0801E10BD0902FCD0401E10BD032A5E
:1007300040F2308010F0030C00F0158011F8013BFE
:10074000BCF1020F624498BF11F801CB00F8013BE5
:1007500038BF11F8013BA2F1040298BF00F801CBA9
:1007600038BF00F8013B11F0030300F02580083A80
:10077000C0F0088051F8043B083A51F804CBA0E8D7
:100780000810F5E7121D5CBF51F8043B40F8043B2C
:10079000AFF30080D20724BF11F8013B11F801CB61
:1007A00048BF11F8012B24BF00F8013B00F801CB32
:1007B00048BF00F8012B704710B5203AC0F00B80FD
:1007C000B1E81850A0E81850B1E81850A0E8185047
:1007D000203ABFF4F5AF5FEA027C24BFB1E81850BD
:1007E000A0E8185044BF18C918C0BDE810405FEA1F
:1007F000827C24BF51F8043B40F8043B08BF70479B
:10080000D20728BF31F8023B48BF11F8012B28BF9F
:1008100020F8023B48BF00F8012B70474FF0000260
:100820000429C0F0128010F0030C00F01B80CCF102
:10083000040CBCF1020F18BF00F8012BA8BF20F870
:10084000022BA1EB0C0100F00DB85FEAC17C24BFC4
:1008500000F8012B00F8012B48BF00F8012B70476E
:100860004FF0000200B5134694469646203922BF49
:10087000A0E80C50A0E80C50B1F12001BFF4F7AF94
:10088000090728BFA0E80C5048BF0CC05DF804EB76
:10089000890028BF40F8042B08BF704748BF20F8E4
:1008A000022B11F0804F18BF00F8012B704710B5D4
:1008B000044610F0030F08BF11F0030F40F015803D
:1008C0004FF0013E121FC0F20E8051F8043BA3EB23
:1008D0000E0C2CEA030C1CEACE1C08BF40F8043BAB
:1008E000F0D0A1F1040102F10402521E08DB11F85C
:1008F000013B00F8013B002BF7D11146FFF78EFFBB
:10090000204610BD0000000030B44FF0013C50F80C
:10091000042BCCFA52F451F8043BD51A20D1FCB97F
:1009200050F8042BCCFA52F451F8043BD51A17D1E5
:10093000B4B950F8042BCCFA52F451F8043BD51A50
:100940000ED16CB950F8042BCCFA52F451F8043B98
:10095000D51A05D1002CDAD030BC4FF0000070471A
:1009600029BAB1FA81F111F01801D1F120008440C7
:10097000F2D1CA40CB4012F0FF0213F0FF0330BCAB
:10098000D01A7047704770477047000000487047A2
:1009900080010024704770477047704738B504469F
:1009A0000A4600206946AFF30080002808BF38BD22
:1009B00002460099204600F023FB012038BD0120AB
:1009C00000F0B9BFF8B5AFF30080054600200C4633
:1009D000102000BF0646A819A0420DD9324669462C
:1009E0000020AFF30080070008BF00F0A4FF0098CC
:1009F000A04218BF0546C419FFF7C8FF05600746A7
:100A0000F01D20F007004619284600F00AF8B4420D
:100A100008BFF8BDA21B31463868BDE8F84000F0B9
:100A2000EFBA00210160C0E9011070471020704743
:100A300010B500F0E1FA006810BD10B5044600F0F2
:100A4000DBFA046010BD70B5044685690068C10614
:100A500001D5302600E02026C00707D070BDD4E9BC
:100A6000012130469047206A401C20626D1EF6D559
:100A700070BD70B5044685690078C00707D170BDA8
:100A8000D4E9012120209047206A401C20626D1E7D
:100A9000F6D570BD09684A0501D540B27047C90551
:100AA000FCD500B2704709684A0501D5C0B270474D
:100AB000C905FCD580B2704770B50C460546012AC1
:100AC00005D02878800600D5EA69002302E00123DA
:100AD00005E05B1C934202D2E05C0028F9D1A869D2
:100AE000E618C01AA861286A184428622846FFF749
:100AF000AAFF04E0D5E9012114F8010B9047B442A4
:100B0000F8D32846FFF7B5FF70BD00002DE9F0418E
:100B10000646002410687529314616A510D0FFF747
:100B2000B9FF002802DA404213A507E031688A07BE
:100B300001D512A502E0490704D511A5012401E061
:100B4000FFF7B1FF00210A2206F1240709E0B0FBFC
:100B5000F2FCB0FBF2F302FB1C0030307854184674
:100B6000491C0028F3D123462A463046BDE8F0410F
:100B700000F0A5BA000000002D0000002B000000CE
:100B80002000000011680268006A530501D5087052
:100B90000AE0D30501D5088006E0130603D5C21785
:100BA000C1E9000200E008600120704701694A1CA9
:100BB00002610878704700B58FB0CDE9013100219E
:100BC000059105497944CDE903101146684600F0C6
:100BD00029F90FB000BD0000E5FFFFFF0A6802F829
:100BE000010B0A60704700002DE9FF5F15468A4639
:100BF0000446DFF8AC80F8440027D8E900103E46F0
:100C0000CDE9001010E03AF816106A4602A800F08C
:100C100067FE411C07D02178890603D5E26939189F
:100C200091420DD80744761C2078800602D5E069F1
:100C3000B84205DDAE42E6DB3AF816000028E2D104
:100C4000A069C01BA0612046FFF7FDFED8E9001097
:100C5000CDE90010002017E03AF818106A4602A803
:100C600000F03EFEB0F1FF3F81460BD000250DF1B4
:100C7000080B05E0D4E901211BF8050090476D1C25
:100C80004D45F7D308F10100B0428046E4DB206A0D
:100C9000384420622046FFF7ECFEBDE8FF9F0000CD
:100CA000229701002DE9F0418046D21D22F0070273
:100CB0000025D2E90002F52915A614D0011E72F113
:100CC000000106DA0023D0EB030063EB020211A659
:100CD00008E0D8F800108B0701D50FA602E04907FD
:100CE00001D50EA601251146002408F1240704E0D1
:100CF00000F0A0F930323A55641C50EA0102F7D1F5
:100D00002B46324621464046BDE8F04100F0D7B9B7
:100D1000000000002D0000002B000000200000005B
:100D200030B4002100F1240408E002F00705D208E5
:100D3000303542EA4372DB086554491C52EA030528
:100D4000F3D10468002310A2250708D504F020047D
:100D50000C4304D0C46901230CA2641EC46130BCDE
:100D600000F0ADB910B5044621461068FFF79BFEB0
:100D700002462046BDE810400023D1E7D21D22F0F4
:100D80000701D1E90023CBE700000000300000009C
:100D9000F0B40D460188090502D5214C7C4402E0DF
:100DA0001F4C7C440E34002100F1240608E002F0C0
:100DB0000F071209E75D42EA03721B097754491CC9
:100DC00052EA0307F3D102780023120704D5702DED
:100DD00006D009B1022311342246F0BC00F06FB9ED
:100DE00001231034F8E770B504460D46214610681B
:100DF000FFF759FE024629462046BDE87040002311
:100E0000C6E7D21D22F00703D3E90023C0E7036839
:100E1000126843F0200303600823C3610023B7E78F
:100E2000849501002DE9F05F894604464FF0000AE1
:100E3000DFF874B1FB44C0F820A02046E168884781
:100E4000002874D0252806D0D4E901219047206AD3
:100E5000401C2062F1E700265F462046E168884793
:100E60002028054607DB312D05D2781910F8200C13
:100E700008B10643F1E7B00701D526F00406C4F82F
:100E80001CA00027C4F818A02A2D09D0284619F064
:100E9000FFF938B304EB8708303DC8F8185019E063
:100EA00059F8041B204604EB87029161E1688847EA
:100EB000012F054618D1E069002820DA26F0200627
:100EC0001DE0D8F8180000EB800005EB400030383A
:100ED000C8F818002046E1688847054619F0D8F997
:100EE0000028EED1012F0AD02E2D08D12046E1682E
:100EF00088477F1C0546022F46F02006C4DBA06908
:100F0000002803DA404246F00106A061F00701D054
:100F100026F010066C2D0BD0682D09D04C2D39D041
:100F20006A2D35D0742D35D07A2D33D016E038E0C7
:100F3000E1682F4620468847B842054609D16C2F04
:100F400026D04FF48060E168064320468847054676
:100F500004E06C2F1AD04FF4807006430DB3A5F156
:100F60004100192802D8203546F400664A46294631
:100F7000204626604E46FFF703FA80B101280BD0C9
:100F8000F61D26F0070000F1080956E74020E4E7C7
:100F90008020D8E70020D6E706F104094DE728466F
:100FA00052E7206ABDE8F09F1495010010B50020BB
:100FB00000F0BAFCFFF742FABDE81040012000F053
:100FC00011B810B5044602E0641C00F004F8207863
:100FD0000028F9D110BD08B569468DF8000003203E
:100FE000ABBE08BD01491820ABBEFEE726000200DB
:100FF00000487047780100240048704778010024B9
:10100000034640688C46002818BF88423CBF034610
:101010004068F8D318681844884207D00CF10300E0
:1010200020F00700001D411A521A0146081D0A60EF
:10103000FFF769BA30B5B0F10A0271F100034FEA67
:10104000900E4EEA817EB0EB0E0061EB91014FEA0B
:10105000101E4EEA017E10EB0E0041EB11114FEA1B
:10106000102E4EEA016E10EB0E0041EB11214FEAFB
:10107000104E4EEA014E10EB0E0041EB11414018AC
:1010800041F100014FEAD00040EA41704FEAD1013E
:101090004FEA810444EA907410EB800544EB0104AC
:1010A0006D1944EB0404521BA3414FF0000348BFE9
:1010B0000A3200D530BD401C41F1000130BD2DE9A0
:1010C000F0470D4699469246044600F1240801680F
:1010D000880604D5E06921F01001216000E00120BC
:1010E000A84201DD471B00E00027A1697A1902EB45
:1010F0000900081AA0612078C00602D42046FFF734
:10110000A2FC002608E0D4E901211AF80600904765
:10111000206A401C761C20624E45F4DB2078C00615
:101120000AD52046FFF78FFC06E0D4E901213020E4
:101130009047206A401C2062381EA7F10107F4DCAA
:1011400007E0D4E9012118F805009047206A401C07
:101150002062281EA5F10105F3DC2046FFF789FC7B
:101160002078000602D50220BDE8F0870120FBE7C9
:101170002DE9FF4F0C461E464FF0FF378BB0D2E9EA
:101180000001DDF860800A908A46C1F30A5505B96E
:101190003D46002108464FF00000BAF1000F00F470
:1011A000400005DA00EB80004FF4400101EA5000F6
:1011B0004FEA9059B9F1010F00DDB9460A9850EA9B
:1011C0004A000ED044F61050A5F2FF3545432F14C7
:1011D000B8F1000F1ED07542291E1EDDC9F10002B4
:1011E0001CE0B8F1010F4FF0000001D0302103E006
:1011F000F24305E02154401CB042FBDB30460022A4
:10120000002121540B99C1F80880C1E900200FB0DA
:10121000BDE8F08FBD1B6D1CDEE74A4600DA69426F
:1012200006A800F001FC06AB93E8070003AB83E8D7
:10123000070050460A9918F0FAFB8DE80700A0F560
:1012400000501F3800900398002D0ADD42F21F0164
:101250004A460844002303A90390684618F064FE38
:1012600009E0A0F500504A461F38002303A9039067
:10127000684618F06EFE8DE807000004000C03D0ED
:101280004FF0FF30410800E01046B8F1000F03D0E6
:101290000022009215461EE0751E05D4FFF7CAFE17
:1012A000303262556D1EF9D5B3460122084302D093
:1012B00000227F1C04E02078302801D100227F1E0C
:1012C000002A099784D01DE0112D07DAFFF7B2FE3E
:1012D000303262556D1C50EA0102F5D1084302D04C
:1012E0000098C8B10EE00021681E05E0235C625C36
:1012F00063542254401E491C8142F7DBAB46A81BB5
:10130000401E0990002004F80B000B98099AC0F8C1
:101310000880C0E9002B7AE711264FF0000857E754
:101320002DE9F04F88460446D21D22F0070191B006
:10133000D1E90001CDE90A0118F042FF02460B98FD
:10134000C00F01D02D2007E02068810701D52B2098
:1013500002E0202101EAC000032A099001D0072AF7
:1013600005DB03464146204600F01EFB0BE12078DA
:10137000800601D5E06900E00620B8F1650F8146DE
:1013800006D0B8F1660F18D0B8F1670F70D131E010
:101390000020B9F1110F009001DB112301E009F1E8
:1013A00001030AAA01A90CA8FFF7E2FEDDE90C700F
:1013B000002609F10105834647E001204B460090D5
:1013C0004FF000470AAA01A90CA8FFF7D1FEDDE9FA
:1013D0000DB00C995D46002610B909F101000D18F9
:1013E000B9EB050003D4C0F1FF3609F10105A5EB07
:1013F00009002BE0B9F1010F01DA4FF001090020DB
:10140000B9F1110F0090484601DD112300E00346B9
:101410000AAA01A90CA8FFF7ABFEDDE90C704D4646
:1014200000268346207800070AD4AB4500DA5D46E3
:1014300001A8012D04DD411911F8011C302907D044
:101440004F4502DA17F1040F04DA012082460FE05B
:101450006D1EEEE7002F02DCED1B3E4403E0781C1E
:10146000A84200DD7D1CB81B00F1010A4FF00047C7
:101470002078000703D4AA4501DB4FF0FF3A002192
:10148000B7F1004F0DF143088DF8431024D002202E
:101490002B23002F01DA7F422D230A21021EA0F107
:1014A000010000DC5FB197FBF1FC97FBF1F201FB5F
:1014B0001C7C17460CF1300C08F801CDEEE7A8F1C2
:1014C000010003702188090501D5452100E065214F
:1014D000A0F1010800F8011C09980FA9A1EB080769
:1014E000FF1D00B10120411901EBEA70A1693844E8
:1014F000081A401EA0612078C00602D42046FFF7DB
:10150000A2FA099828B1D4E901219047206A401C29
:1015100020622078C00622D52046FFF794FA1EE00C
:10152000002E04DBB34502DD01A8805D00E0302021
:10153000D4E901219047206A401C2062761CAAF160
:1015400001005FEA000A0AD100F02AFAC0680168C7
:10155000405CD4E901219047206A401C2062281E8B
:10156000A5F10105DCDC07E0D4E9012118F8010B45
:101570009047206A401C2062381EA7F10107F3DC67
:101580002046FFF776FA032011B041E62DE9F04F2F
:1015900004460D46D21D22F0070089B0D0E900971D
:1015A0004846394618F00CFE0246F80F01D02D23AC
:1015B00007E02068810701D52B2302E0202101EA02
:1015C000C0038DF820300BB1012000E00020032A79
:1015D000824601D0072A04DB2946204600F0E4F9C0
:1015E0003FE12078800601D40D2500E0E569C7F3CE
:1015F0000A560D2D49DA00214FEA175B08464FF0D5
:101600000000002F00F4400007DA00EB80004FF4E8
:10161000400100EBD07001EA60008115012901DD75
:101620004FF0FF3100224FEA850CBCF1180F06D3B2
:101630001346ACF118004FF08052C24003E04FF463
:10164000801323FA0CF30CF10C0CBCF1200F04D323
:10165000ACF1200C09FA0CF001E007FA0CF00029BB
:101660004FF0004801DD18B90FE00ED140450CD312
:1016700019EB02095F4121B9404502D19F4329EA94
:101680000209BBEB175F00D0761C2088000502D54D
:101690007B48784402E07A487844193808AA302315
:1016A00002F80A30037C0AF10101002E0AF1020A55
:1016B00053546A4602DC4FF0300101E04FF0310133
:1016C0004FF001088DF8001002D0A6F2FF3603E0BB
:1016D00059EA470100D06B4E002D02DC2178090742
:1016E00004D54FF002082E218DF80110C4460021C8
:1016F0000BE0C7F303433F01C35C491C6D1E02F8B6
:101700000830052908F1010801DA002DF1DC00217B
:101710000CE000EB1973491C1B786D1E082902F8B8
:1017200008304FEA091908F1010801DA002DF0DC50
:1017300021688B0602D516E0A8F10108E04505DD19
:1017400002EB080313F8013C302BF5D0B8F1000F81
:1017500009DD02EB080313F8013C2E2B03D1090726
:1017600001D4A8F10108002D05DD3E2102F8081082
:101770006D1E08F10108407C002E02F8080008F1F7
:10178000010804DA2D20764202F8080002E02B203E
:1017900002F808000A214FF47A70864208F1010825
:1017A0000BDB96FBF0F3303302F8083096FBF0F3D6
:1017B00008F1010800FB136601E0642E0CDB6420D5
:1017C00096FBF0F3303302F8083096FBF0F308F1A3
:1017D000010800FB136601E00A2E06DB96FBF1F020
:1017E000303002F8080008F1010896FBF1F001FB27
:1017F0001060303002F80800A16908F1010808EB18
:10180000050202EB0A00081AA0612078C00602D483
:101810002046FFF718F9216A08AE01EB0A002062A2
:1018200004E0D4E9012116F8010B9047BAF1010A4E
:10183000F7D22078C00602D52046FFF704F96E469D
:1018400009E016F8010B3E280FD0D4E9012190479A
:10185000206A401C2062B8F10108F2D22046FFF74E
:1018600008F909B00320BDE8F08F206A28442062FF
:1018700003E0D4E90121302090476D1EEBD3F8E757
:10188000DA8C010002FCFFFF10B5436913B1AFF31E
:10189000008001E0FFF710F9012010BD127800F17F
:1018A00024010A7000224A700122EDE711684FF00E
:1018B000FF32E9E710B5436913B1AFF3008001E0EF
:1018C000FFF792F9012010BD128800F124018284F3
:1018D0000022C2840122EDE711684FF0FF32E9E7F0
:1018E0002DE9F04116460C46054600F051F8036814
:1018F00093F80101012807D0FF2C12D8185D80B1A0
:1019000001202C70BDE8F081D3F807013246214652
:1019100003F20713C7182846BC46BDE8F041002370
:1019200060474FF0FF30EDE710B500F0FDF8BDE87F
:10193000104000F0F4B810B500F00EF9BDE810400A
:1019400000F0EDB870477546FFF752FBAE46050054
:101950006946534620F00700854618B020B5FEF7CB
:101960008FFDBDE820404FF000064FF000074FF01C
:1019700000084FF0000BAC46ACE8C009ACE8C00969
:10198000ACE8C009ACE8C00921F007018D467047FA
:1019900010B500F005F8001D10BD00BF3189010031
:1019A00000487047980100242DE9F0411F46044685
:1019B00003260168072A01F4006004DB08B116A5BC
:1019C00005E016A503E008B115A500E015A521F076
:1019D00010002060A069C01EA0610FB1401EA06170
:1019E0002046FFF730F84FB1D4E90121384690473F
:1019F000206A401C2062C01C206206E0206AFAE7D0
:101A0000D4E9012115F8010B9047761EF8D2204643
:101A1000FFF72FF8BDE8F0814E414E006E616E0079
:101A2000494E4600696E66002DE9F047814616462C
:101A30008AB0354878440DC88DE80D0032487844A6
:101A4000801C03AC0DC884E80D0041F69B300844AF
:101A5000372190FBF1F290FBF1F5A5F1800501FB38
:101A600012041B3C02D56442012000E00020DFF894
:101A700098A080460027FA44AAF1BE0A0EE0E007CB
:101A80000AD03246684607EB470101230AEB810181
:101A900018F05FFA8DE8070064107F1C002CEED16F
:101AA000194F7F44AE3F19E0E80715D007EB04104B
:101AB0000DF1180A90E80E008AE80E00C068F042A6
:101AC00001D1981908903246012306A903A818F0FD
:101AD00040FA03AB83E807006D10641C002DE3D1CE
:101AE0004FF0010332466946B8F1000F03A802D057
:101AF00018F01AFA01E018F02CFAC9E90001C9F847
:101B000008200AB0BDE8F087C889010010B5044676
:101B1000AFF300802046BDE81040FEF79ABC0028D5
:101B200001D0FFF75FBA704710B5002102A000F0A6
:101B30003BF8012010BD0000534947414252543A3E
:101B40002041626E6F726D616C207465726D696E9A
:101B50006174696F6E00000010B5012805D0002186
:101B600003A000F021F8012010BD09A1F8E7000052
:101B700053494752544D454D3A204F7574206F6676
:101B80002068656170206D656D6F727900000000DE
:101B90003A2048656170206D656D6F727920636FC2
:101BA000727275707465640070B505460C460A2043
:101BB00000E06D1CFFF70FFA35B128780028F8D146
:101BC00002E0641CFFF707FA14B120780028F8D16E
:101BD000BDE870400A20FFF7FEB9000000000000D9
:101BE00080B584B0039002910020ADF80600039800
:101BF00020B1FFE70298022801D8FFE71AE0039816
:101C00000299023940F29E02C2F20042128801F0AB
:101C100047FEADF80600BDF80600039A029911448C
:101C200001F8020C9DF80700039A0299114401F88B
:101C3000010CFFE704B080BD80B582B00190ADF823
:101C4000021000208DF80100019828B1FFE7BDF8CF
:101C50000200022801DCFFE712E00198BDF8021043
:101C6000013989B2FF2201F04FFE8DF801009DF885
:101C70000100019ABDF80210114401F8010CFFE7C0
:101C800002B080BD0000000080B541F2D020C2F259
:101C900000404AF2B821C2F201414FF480720BF0C9
:101CA000A3FE40F60060C2F2004000681021C4F2BA
:101CB0000201884200F0B280FFE740F60060C2F205
:101CC000004000682821C4F20201884200F0A6808A
:101CD000FFE740F60060C2F2004000684021C4F215
:101CE0000201884200F09A80FFE740F60060C2F2ED
:101CF000004000685821C4F20201884200F08E8042
:101D0000FFE740F60060C2F2004000687021C4F2B4
:101D10000201884200F08280FFE740F60060C2F2D4
:101D2000004000688821C4F20201884276D0FFE7B3
:101D300040F60060C2F200400068A021C4F2020137
:101D400088426BD0FFE740F60060C2F200400068B6
:101D5000B821C4F20201884260D0FFE740F600607B
:101D6000C2F20040006840F21041C4F20201884211
:101D700054D0FFE740F60060C2F20040006840F235
:101D80002841C4F20201884248D0FFE740F60060D3
:101D9000C2F20040006840F24041C4F202018842B1
:101DA0003CD0FFE740F60060C2F20040006840F21D
:101DB0005841C4F20201884230D0FFE740F600608B
:101DC000C2F20040006840F27041C4F20201884251
:101DD00024D0FFE740F60060C2F20040006840F205
:101DE0008841C4F20201884218D0FFE740F6006043
:101DF000C2F20040006840F2A041C4F202018842F1
:101E00000CD0FFE740F60060C2F20040006840F2EC
:101E1000B841C4F2020188420AD1FFE740F60060EF
:101E2000C2F200400168086820F00800086009E07C
:101E300040F60060C2F200400168086820F004002B
:101E40000860FFE780BD000080B586B04AF2B82088
:101E5000C2F201400078AA2840F02481FFE74AF24C
:101E6000B820C2F2014090F83F00FE2840F01A81ED
:101E7000FFE700208DF81700FFE79DF81700032803
:101E80001CDCFFE79DF817104AF2B820C2F20140AF
:101E900000EB41025078927840EA022001EB4102C7
:101EA00040F2F871C2F2004101EB82114881FFE774
:101EB0009DF8170001308DF81700DEE74AF2B820D0
:101EC000C2F201400290417A827A41EA022109B2CB
:101ED00000EE101AB8EEC00A9FED731A80EE010AE8
:101EE00041F27832C2F2004282ED030AC17A037BEA
:101EF00041EA032109B200EE101AB8EEC00A80EEE2
:101F0000010A82ED040A417B837B41EA032109B285
:101F100000EE101AB8EEC00A80EE010A82ED0C0A3B
:101F2000C17B037C41EA032109B200EE101AB8EE2E
:101F3000C00A80EE010A82ED100A417C82F8B110DD
:101F4000817C4AF2D132C2F201421170C17C4AF264
:101F5000D032C2F201421170017D40F6FC22C2F281
:101F600000421170417D827D41EA022140F6A43297
:101F7000C2F200421180C17D41F2C952C2F2004258
:101F80001170017E41F2C852C2F200421170417ECE
:101F9000827E41EA022140F6FA22C2F2004211801A
:101FA000C17E40F6A632C2F20042117090F83E00A7
:101FB00040F2ED41C2F20041087041F2D051C2F24C
:101FC0000041AB20087000208DF81600FFE79DF857
:101FD0001600032823DCFFE79DF8163003EB4301CE
:101FE00040F2F870C2F2004000EB81118A7841F2B1
:101FF000D051C2F2004101EB43035A709DF8162004
:1020000002EB420300EB8310C07801EB42018870C1
:10201000FFE79DF8160001308DF81600D7E740F273
:102020003011C2F200410A7841F2D050C2F20040B1
:1020300001904272497881724AF2D431C2F2014170
:10204000D1F88C10049104A9039103990978C17205
:102050000399497801730399897841730399C97881
:1020600081730F3040F20451C2F200411E22FEF78C
:102070005EFB019940F20C20C2F20040007881F82A
:102080003E00FD2081F83F0041F2BC52C2F2004206
:102090000120107041F2D020C2F2004040220CF02A
:1020A0000BFBFFE706B080BD00007A440000000093
:1020B00080B540F60000C5F602000122114606F088
:1020C000A3FA80BD0000000080B540F60000C5F610
:1020D00002000121002206F097FA80BD00000000F6
:1020E000704700000000000080B540F60000C5F613
:1020F00002000821012206F087FA80BD00000000DE
:1021000080B540F60000C5F602000821002206F066
:102110007BFA80BD00000000704700000000000056
:1021200080B582B0ADF80600FFE7BDF80600411E9D
:10213000ADF8061028B1FFE74FF47A7000F004F80C
:10214000F3E702B080BD000086B0ADF816000020B5
:10215000049003900290019000904EF21400CEF291
:10216000000000680090BDF81600C0EB00104001B0
:1021700004904EF21800CEF2000000680390FFE7D2
:102180004EF21800CEF20000006802900298039907
:1021900088421ED0FFE702980399884207D2FFE7E2
:1021A00003980299411A01980844019008E00098A8
:1021B0000299401A03990144019808440190FFE7ED
:1021C0000298039001980499884201D3FFE701E047
:1021D000FFE7D5E706B0704780B582B000208DF8E4
:1021E0000700FFF77DFFFFF797FF15F025FC01467D
:1021F0009DF8070008438DF8070015F0E5FC01463F
:102200009DF8070008438DF807009DF8070002B00D
:1022100080BD00000000000080B582B08DF807008E
:1022200000919DF8070040F0800000F009F855206B
:1022300000F006F80099087002B080BD00000000B0
:1022400080B582B08DF8070069464FF47A70086057
:1022500041F2D000C2F200400DF107010DF106027B
:10226000012309F051FC9DF8060002B080BD00007A
:1022700080B582B08DF807008DF806109DF8070034
:10228000FFF7DEFF9DF80600FFF7DAFF02B080BD22
:1022900080B582B041F25810C2F200400421019191
:1022A0000AF0BEFD41F22C40C2F200400090322103
:1022B00010F0E6FB0098019A41F24041C2F2004161
:1022C00010F07AFB02B080BD80B582B0ADF8060098
:1022D00041F25810C2F2004004210BF069F9BDF838
:1022E0000600D0B1FFE7FFE7BDF8060041F2581144
:1022F000C2F200410A68D062BDF80600C860FFE77C
:10230000BDF80600410841F25810C2F200400268D0
:10231000916304210AF084FDFFE702B080BD000054
:1023200080B584B003908DF80B1000200190FFE77A
:1023300001989DF80B1088420FDAFFE70398019986
:1023400000EB810141F22C40C2F2004010F064FB2E
:10235000FFE7019801300190EAE740F2D810C2F29D
:102360000040006802220023194617F09DF804B0CF
:1023700080BD000000000000FFE7FEE70000000055
:1023800080B586B00590049105980068A0F2012000
:10239000032878D8FFE70598006801388DF80F000A
:1023A0009DF80F0000EB400140F2F870C2F20040CF
:1023B000029000EB8110DDF810C09CF800E09CF862
:1023C00001109CF802309CF8032041EA0E2142EAF9
:1023D00003229CF804E09CF8053043EA0E239CF9A4
:1023E00006C0EE46CEF800C01BB209B212B200F031
:1023F000B7F902989DF80F1001EB410100EB811035
:1024000090F9060047281DDBFFE79DF80F0000EB61
:10241000400140F2F870C2F2004000EB811090F9E8
:10242000060063280EDCFFE79DF80F0000EB40017B
:1024300040F2F870C2F2004000EB8111887C01305C
:102440008874FFE79DF80F0000EB400140F2F87040
:10245000C2F2004000EB811090F9060031280DDC3B
:10246000FFE79DF80F0000EB400140F2F870C2F268
:10247000004000EB811100208874FFE79DF80F00F9
:1024800000F0EEFF00E0FFE706B080BD00000000B6
:1024900080B582B00190009101980068B0F5407F4E
:1024A00008D1FFE7009940F2CC70C2F2004010F072
:1024B00003FE00E0FFE702B080BD00000000000066
:1024C00082B001900091FFE702B070470000000069
:1024D00080B592B0002008900A900B9002210591DF
:1024E0000C91012106910D910E900F9040F6F06035
:1024F000C2F2004002900AA9049104F0BDFC059AC2
:10250000089B029869460B60114604F041FD06994C
:10251000089A029804F06CFB089A02984FF0007138
:10252000079104F065FB069A0298114604F050FCEE
:10253000029805F029FE049940F69070C2F200401E
:10254000039004F099FC059A089B039869460B6078
:10255000114604F01DFD069A0398114604F038FC5C
:102560000699089A039804F043FB0799089A039880
:1025700004F03EFB039805F007FE049941F2300099
:10258000C2F20040099004F077FC059A089B099874
:1025900069460B60114604F0FBFC069A0998114647
:1025A00004F016FC0699089A099804F021FB079993
:1025B000089A099804F01CFB099805F0E5FD12B093
:1025C00080BD00000000000081B040F23020C2F267
:1025D0000040007B4008C00760B9FFE740F2CC71C3
:1025E000C2F20041002081F82800C860886181F8AB
:1025F0002900FFE740F23020C2F20040007B400893
:10260000C00730B3FFE740F2CC70C2F2004090F850
:102610002900F0B9FFE700208DF803009DF80300C2
:1026200050B1FFE740F2CC71C2F20041002081F8C6
:102630002800C8608861FFE79DF8030040B9FFE704
:1026400040F2CC71C2F20041012081F82900FFE77D
:10265000FFE740F2CC70C2F20040B0F9021000EE89
:10266000101AB8EEC00A9FED111A80EE010A80ED33
:10267000040A90ED042ABBEE090AA2EE020AB6EEA5
:10268000002A20EE020AB2EE062A20EE020A80EDAF
:10269000050A90ED050A9FED062A80EE020A20EE5B
:1026A000010A80ED070A01B0704700BF0000C84270
:1026B000001CDA440000000080B584B000208DF8D2
:1026C0000F00FFE79DF80F0003281EDCFFE79DF8D1
:1026D0000F0000EB400140F2F870C2F2004000EB46
:1026E00081101430B2EE040ADFED190AB1EE081AB7
:1026F000DFED181A9FED182A0FF0D6FFFFE79DF8BF
:102700000F0001308DF80F00DCE740F2F870C2F2E4
:102710000040019014309FED0E0A8DED020A0FF07B
:10272000E3FF01989DED020AD4300FF0DDFF019820
:102730009DED020A00F5CA700FF0D6FF01989DEDDD
:10274000020A00F515700FF0CFFF04B080BD00BF86
:10275000000000000000FA4500007A46000000007A
:1027600080B583B084460598CDF808C0ADF8061052
:10277000ADF80420ADF802308DF80100BDF8060078
:1027800002990880BDF8040002994880BDF8020053
:10279000029988809DF801000299887103B080BD7C
:1027A00080B540F6A830C2F2004002F0E9F880BDE2
:1027B00080B540F62040C2F2004002F0E1F880BD52
:1027C00080B540F69840C2F2004002F0D9F880BDD2
:1027D00080B540F60060C2F2004002F0D1F880BD42
:1027E00080B540F67860C2F2004002F0C9F880BDC2
:1027F00080B540F61050C2F2004002F0C1F880BD32
:1028000080B540F68850C2F2004002F0B9F880BDB1
:1028100083B002900298016801201022C4F20202E3
:102820009142009000F0A380FFE702980168012028
:102830002822C4F202029142009000F09880FFE743
:102840000298016801204022C4F2020291420090E5
:1028500000F08D80FFE70298016801205822C4F241
:1028600002029142009000F08280FFE70298016826
:1028700001207022C4F202029142009077D0FFE75B
:102880000298016801208822C4F20202914200905D
:102890006DD0FFE7029801680120A022C4F2020275
:1028A0009142009063D0FFE7029801680120B822AE
:1028B000C4F202029142009059D0FFE702980168E9
:1028C000012040F21042C4F20202914200904ED028
:1028D000FFE702980168012040F22842C4F2020298
:1028E0009142009043D0FFE702980168012040F236
:1028F0004042C4F202029142009038D0FFE70298B1
:102900000168012040F25842C4F202029142009054
:102910002DD0FFE702980168012040F27042C4F216
:1029200002029142009022D0FFE702980168012044
:1029300040F28842C4F202029142009017D0FFE7B1
:1029400002980168012040F2A042C4F202029142C2
:1029500000900CD0FFE7029800684FF64831CBF6A4
:10296000FD710844B0FA80F040090090FFE700983C
:10297000C00740B3FFE70298007810384AF6AB2151
:10298000CAF6AA21A0FB011000090190019800F0ED
:1029900007014AF2B860C0F60100405C0299C865C0
:1029A0000198042807D3FFE702990868042262F31C
:1029B0000900886506E00299086840F2FF329043FA
:1029C0008865FFE705E00299086820F0FF00886548
:1029D000FFE70298806D03B0704700000000000020
:1029E00084B0039003980068019003980168012067
:1029F00045F20842C5F60202914200904ED0FFE730
:102A000003980168012045F21C42C5F6020291427A
:102A1000009043D0FFE703980168012045F230425F
:102A2000C5F602029142009038D0FFE70398016892
:102A3000012045F24442C5F60202914200902DD099
:102A4000FFE703980168012045F25842C5F60202EB
:102A50009142009022D0FFE703980168012045F2DF
:102A60006C42C5F602029142009017D0FFE703982E
:102A70000168012045F28042C5F6020291420090B1
:102A80000CD0FFE7039800684AF66C31CAF2FD717A
:102A90000844B0FA80F040090090FFE70098C007B2
:102AA00010B3FFE70398007808384CF6CD41CCF618
:102AB000CC41A0FB011000090290029945F60000EC
:102AC000C5F6020000EB810003990866039945F6FC
:102AD0008000C5F602004866029800F01F01012040
:102AE00088400399886635E00398007810384AF6E4
:102AF000AB21CAF6AA21A0FB01100009029001989F
:102B000040F2B841C4F2020188420CD8FFE70198B4
:102B100040F21041C4F20201884204D3FFE7029858
:102B200008300290FFE7029940F60000C4F202006C
:102B300000EB810003990866039940F68000C4F217
:102B400002004866029800F01F01012088400399A6
:102B50008866FFE704B0704783B00290029800795E
:102B600001900198002800F08A80FFE7019808286A
:102B700000F28580FFE702980168012045F20842D3
:102B8000C5F60202914200904ED0FFE7029801681C
:102B9000012045F21C42C5F602029142009043D04A
:102BA000FFE702980168012045F23042C5F60202B3
:102BB0009142009038D0FFE702980168012045F269
:102BC0004442C5F60202914200902DD0FFE70298E0
:102BD0000168012045F25842C5F602029142009078
:102BE00022D0FFE702980168012045F26C42C5F649
:102BF00002029142009017D0FFE70298016801207D
:102C000045F28042C5F60202914200900CD0FFE7E7
:102C1000029800684AF66C31CAF2FD710844B0FAB5
:102C200080F040090090FFE70098C00780B1FFE7FF
:102C3000019945F6FC00C5F6020000EB81000299FF
:102C4000C866029945F64010C5F6020008670FE015
:102C5000019940F6FC00C4F2020000EB81000299E9
:102C6000C866029940F64010C4F202000867FFE708
:102C70000198411E0120884002994867FFE703B090
:102C8000704700000000000085B0049000208DF81F
:102C90000F000498806918BBFFE70498806A0290CF
:102CA00003281BD80299DFE801F0020D02180498EE
:102CB00090F82F00C00720B1FFE701208DF80F002A
:102CC000FFE70CE00498C06AB0F1C07F04D1FFE7D1
:102CD00001208DF80F00FFE701E000E0FFE747E08B
:102CE00004988069B0F5005F26D1FFE70498806AF8
:102CF000019003281ED80199DFE801F002060211B5
:102D000001208DF80F0016E0049890F82F00C007FE
:102D100020B1FFE701208DF80F00FFE70BE00498DA
:102D2000C06AB0F1C07F04D1FFE701208DF80F0029
:102D3000FFE700E0FFE71AE00498806A00900328AC
:102D400004D3FFE70098032804D00EE001208DF89B
:102D50000F000BE0049890F82F00C00720B1FFE7A8
:102D600001208DF80F00FFE700E0FFE7FFE7FFE736
:102D70009DF80F0005B0704789B008900791069242
:102D800005930898806D04900898806D03900898CA
:102D9000016801201022C4F202029142029000F068
:102DA0000381FFE70898016801202822C4F202028B
:102DB0009142029000F0F880FFE708980168012036
:102DC0004022C4F202029142029000F0ED80FFE73F
:102DD0000898016801205822C4F202029142029030
:102DE00000F0E280FFE70898016801207022C4F239
:102DF00002029142029000F0D780FFE70898016834
:102E000001208822C4F202029142029000F0CC809C
:102E1000FFE7089801680120A022C4F20202914253
:102E2000029000F0C180FFE7089801680120B822F5
:102E3000C4F202029142029000F0B680FFE70898C7
:102E40000168012040F21042C4F202029142029055
:102E500000F0AA80FFE708980168012040F22842AC
:102E6000C4F202029142029000F09E80FFE70898AF
:102E70000168012040F24042C4F2020291420290F5
:102E800000F09280FFE708980168012040F2584264
:102E9000C4F202029142029000F08680FFE7089897
:102EA0000168012040F27042C4F202029142029095
:102EB0007AD0FFE708980168012040F28842C4F206
:102EC0000202914202906FD0FFE70898016801204A
:102ED00040F2A042C4F202029142029064D0FFE7A5
:102EE00008980168012040F2B842C4F202029142FF
:102EF000029059D0FFE708980168012045F2084286
:102F0000C5F60202914202904ED0FFE70898016890
:102F1000012045F21C42C5F602029142029043D0C4
:102F2000FFE708980168012045F23042C5F6020229
:102F30009142029038D0FFE708980168012045F2DD
:102F40004442C5F60202914202902DD0FFE7089854
:102F50000168012045F25842C5F6020291420290F2
:102F600022D0FFE708980168012045F26C42C5F6BF
:102F700002029142029017D0FFE7089801680120F1
:102F800045F28042C5F60202914202900CD0FFE762
:102F9000089800684AF66C31CAF2FD710844B0FA2C
:102FA00080F040090290FFE70298C00770B1FFE788
:102FB0000898416E806E48600898C06E28B1FFE79F
:102FC0000898016F406F4860FFE7FFE708980168C5
:102FD00001201022C4F202029142019000F0A3806D
:102FE000FFE70898016801202822C4F202029142FA
:102FF000019000F09880FFE70898016801204022C6
:10300000C4F202029142019000F08D80FFE708981F
:10301000016801205822C4F202029142019000F09E
:103020008280FFE70898016801207022C4F2020242
:103030009142019077D0FFE708980168012088222B
:10304000C4F20202914201906DD0FFE70898016836
:103050000120A022C4F202029142019063D0FFE756
:10306000089801680120B822C4F20202914201903E
:1030700059D0FFE708980168012040F21042C4F2DD
:103080000202914201904ED0FFE7089801680120AA
:1030900040F22842C4F202029142019043D0FFE77D
:1030A00008980168012040F24042C4F202029142B5
:1030B000019038D0FFE708980168012040F258429B
:1030C000C4F20202914201902DD0FFE708980168F6
:1030D000012040F27042C4F202029142019022D0DB
:1030E000FFE708980168012040F28842C4F202021A
:1030F0009142019017D0FFE708980168012040F243
:10310000A042C4F20202914201900CD0FFE708985D
:1031100000684FF64831CBF6FD710844B0FA80F0F4
:1031200040090190FFE70198C00750B3FFE70898F6
:10313000C06D00F01F013F20884004998860089806
:103140000168086820F480200860059808990968DB
:10315000486008988068402809D1FFE706980899D8
:1031600009688860079808990968C86008E00798A6
:10317000089909688860069808990968C860FFE797
:1031800082E008980168012045F20842C5F6020273
:10319000914200904ED0FFE708980168012045F267
:1031A0001C42C5F602029142009043D0FFE7089806
:1031B0000168012045F23042C5F6020291420090BA
:1031C00038D0FFE708980168012045F24442C5F66F
:1031D0000202914200902DD0FFE70898016801207B
:1031E00045F25842C5F602029142009022D0FFE714
:1031F00008980168012045F26C42C5F6020291422E
:10320000009017D0FFE708980168012045F280423E
:10321000C5F60202914200900CD0FFE708980068C2
:103220004AF66C31CAF2FD710844B0FA80F04009E8
:103230000090FFE70098C00720B3FFE70898C06D33
:1032400000F01F0101208840039948600598089903
:103250000968486008988068402809D1FFE7069807
:10326000089909688860079808990968C86008E0A3
:103270000798089909688860069808990968C860DD
:10328000FFE700E0FFE7FFE709B07047000000003C
:1032900081B000904EF6FC51CEF20001086840F07B
:1032A0008070086041F20401CEF200010020086045
:1032B00041F20002CEF20002116841F001011160FA
:1032C000009944F24022C0F20F024A4340F2EC114E
:1032D000C2F200410A600A6844F6D353C1F26203A5
:1032E000A2FB0332920940F2F013C2F200431A60CB
:1032F00009684DF68362C4F21B32A1FB0221890CDE
:1033000040F2F412C2F20042116040F2F811C2F22F
:103310000041086001B070477047000000000000E5
:1033200080B582B08DF807009DF8070006281FD1F0
:10333000FFE741F2B850C2F200400168013101607C
:103340000068022801D8FFE712E041F2B850C2F24B
:10335000004000680B2808D3FFE740F20420C2F2C7
:103360000040006814F0C8FDFFE7FEF78DFCFFE7A2
:1033700002B080BD0000000081B08DF8030001B0F4
:10338000704700000000000080B584B06421009107
:103390000023039318461A4600F036F80099039B61
:1033A000012001901A4600F02FF80099039B02209B
:1033B0001A4600F029F80099039B03201A4600F0F2
:1033C00023F80099039B04201A4600F01DF8019889
:1033D000039B40F60431C2F2004181F858000620F8
:1033E0004FF4FA7102911A4600F00EF80299039B0D
:1033F00040F6A102C0F60102072000F005F804B073
:1034000080BD00000000000084B08DF80F00029124
:103410000192009302989DF80F1001EB810240F693
:103420000431C2F2004141F822009DF80F0000EB88
:10343000800001EB80020020107201989DF80F209F
:1034400002EB820201EB8202D06000989DF80F200F
:1034500002EB820201EB8201086104B070470000B8
:1034600080B582B08DF8070005F0E6F89DF80710EA
:1034700001EB810240F60431C2F2004101EB82010E
:10348000486002B080BD000081B0EFF3108072B6DA
:103490000090FFE7FEE7000044F60C01C5F60201CC
:1034A000086840F002000860FFE744F60400C5F633
:1034B000020000688004002801D4FFE7F5E77047A8
:1034C00080B540F6F060C2F2004003F099FF80BD85
:1034D00080B540F6F060C2F2004003F091FF80BD7D
:1034E00080B540F69070C2F2004003F089FF80BDC5
:1034F00080B540F69070C2F2004003F081FF80BDBD
:1035000080B541F23000C2F2004003F079FF80BD87
:1035100080B541F23000C2F2004003F071FF80BD7F
:1035200084B002900298406B009002980068D0F836
:1035300084004FF6FC718843009940EA81000299AB
:103540000968C1F8840002980068D0F8840020F46B
:103550007F00029A1168926B40EA0240C1F8840031
:103560000298816B00980844009002980068D0F897
:1035700088006FF38F00009940EA81000299096882
:10358000C1F8880002980068D0F8880020F4FE0096
:10359000029A1168D26B40EA0240C1F88800029892
:1035A000C16B009800EB4100009002980068D0F8D1
:1035B000A0006FF38F00009940EA8100029909682A
:1035C000C1F8A00002980068D0F8A00020F4FE0026
:1035D000029A1168126C40EA0240C1F8A0000299F8
:1035E000086C496C009A00FB01200090029800686A
:1035F000D0F8B0006FF38F00009940EA8100029983
:103600000968C1F8B00002980068D0F8B00020F452
:10361000FE00029A1168926C40EA0240C1F8B000C4
:103620000299886CC96C009A00FB012000900298F6
:103630000068D0F8AC006FF38F00009940EA810079
:1036400002990968C1F8AC000299086D496D009AA9
:1036500000FB0120009002980068D0F8F0006FF3A2
:103660008F00009940EA810002990968C1F8F000D2
:1036700002980068D0F8F00020F47C10029A1168DB
:10368000926D40EA0240C1F8F0000298816D009806
:1036900000EB4100009002980068D0F8C0006FF382
:1036A0008F00009940EA810002990968C1F8C000C2
:1036B00002980068D0F8C00020F47C10029A1168CB
:1036C000D26D40EA0240C1F8C00002980068D0F80C
:1036D000C00020F07C50029A1168126E40EA02602D
:1036E000C1F8C00002994A6B4AF60040C4F20000DB
:1036F00000EB8200C86602998A6BC86E00EB8200FC
:1037000008670299CA6B086F00EBC200486702990C
:103710000A6C4B6C486F5A4300EB82008867029931
:103720008A6CCB6C886F5A4300EB8200C8670299A1
:103730000A6D4B6DC86F5A4300EB8200C1F88000E0
:1037400002998A6DD1F8800000EBC200C1F88400B4
:103750000299CA6D8B6ED1F884005A4300EB820047
:10376000C1F8880002990A6E8B6ED1F888005A431E
:1037700000EB8200C1F890000298D0F890004DF262
:10378000FD31C4F2000188420FD3FFE70299D1F85E
:103790009C0040F02000C1F89C000299032081F8B1
:1037A000980001208DF80F0017E00298C06E01907C
:1037B000FFE701980299D1F89010884208D2FFE7FC
:1037C000019900200860FFE7019804300190F0E7BC
:1037D000FFE700208DF80F00FFE79DF80F0004B011
:1037E000704700000000000088B007900691059225
:1037F00004930698406848B9FFE706980168826814
:103800000069104340EA8140039009E0069801688E
:10381000826800691043084340F080400390FFE74E
:103820000698D0F820C0C16842698369C06940EA3F
:103830000C601843104340EA014002900798826EE2
:10384000D0F884000499514300EB81000190039863
:10385000019908600198043001900298019908606C
:1038600001980430019000200090FFE7009806992D
:10387000CA684AF2A861C0F60101895C88420DD28B
:10388000FFE70598009940580199086001980430B5
:103890000190FFE7009804300090E7E708B0704718
:1038A00084B002900191ADF80220029828B9FFE798
:1038B0004FF6FF70ADF80E0021E0FFE70198411EC2
:1038C0000191B8B1FFE70298411C029100788DF890
:1038D0000100BDF802109DF801004840C2B24BF251
:1038E000E210C0F6010030F8120080EA1120ADF8B5
:1038F0000200E3E7BDF80200ADF80E00FFE7BDF8F7
:103900000E0004B07047000082B00190ADF80210C4
:103910008DF80120FFE7BDF80200411EADF802104E
:1039200098B1FFE79DF8010001994A1C01920978BE
:1039300048408DF800009DF800104AF29850C0F6FB
:103940000100405C8DF80100E5E79DF8010002B040
:10395000704700000000000080B58AB0089004F0B5
:103960006BFE0490089828B9FFE701208DF8270026
:1039700000F0AABC089890F8350002280ED0FFE7A6
:10398000089980204865FFE70899002081F83400F5
:10399000FFE701208DF8270000F096BC0898016829
:1039A00001201022C4F202029142039000F0A38091
:1039B000FFE70898016801202822C4F20202914220
:1039C000039000F09880FFE70898016801204022EA
:1039D000C4F202029142039000F08D80FFE7089844
:1039E000016801205822C4F202029142039000F0C3
:1039F0008280FFE70898016801207022C4F2020269
:103A00009142039077D0FFE708980168012088224F
:103A1000C4F20202914203906DD0FFE7089801685A
:103A20000120A022C4F202029142039063D0FFE77A
:103A3000089801680120B822C4F202029142039062
:103A400059D0FFE708980168012040F21042C4F203
:103A50000202914203904ED0FFE7089801680120CE
:103A600040F22842C4F202029142039043D0FFE7A1
:103A700008980168012040F24042C4F202029142DB
:103A8000039038D0FFE708980168012040F25842BF
:103A9000C4F20202914203902DD0FFE7089801681A
:103AA000012040F27042C4F202029142039022D0FF
:103AB000FFE708980168012040F28842C4F2020240
:103AC0009142039017D0FFE708980168012040F267
:103AD000A042C4F20202914203900CD0FFE7089882
:103AE00000684FF64831CBF6FD710844B0FA80F01B
:103AF00040090390FFE70398C00780B1FFE70898EB
:103B00000168086820F01E0008600898016848698C
:103B100020F08000486108980068059009E0089846
:103B20000168086820F00E00086008980068059099
:103B3000FFE70898016801201022C4F202029142B6
:103B4000029000F00381FFE7089801680120282215
:103B5000C4F202029142029000F0F880FFE7089858
:103B6000016801204022C4F202029142029000F05A
:103B7000ED80FFE70898016801205822C4F2020294
:103B80009142029000F0E280FFE70898016801206E
:103B90007022C4F202029142029000F0D780FFE747
:103BA0000898016801208822C4F202029142029022
:103BB00000F0CC80FFE7089801680120A022C4F241
:103BC00002029142029000F0C180FFE7089801686C
:103BD0000120B822C4F202029142029000F0B680A5
:103BE000FFE708980168012040F21042C4F2020287
:103BF0009142029000F0AA80FFE708980168012036
:103C000040F22842C4F202029142029000F09E80EB
:103C1000FFE708980168012040F24042C4F2020226
:103C20009142029000F09280FFE70898016801201D
:103C300040F25842C4F202029142029000F08680A3
:103C4000FFE708980168012040F27042C4F20202C6
:103C5000914202907AD0FFE708980168012040F273
:103C60008842C4F20202914202906FD0FFE70898A6
:103C70000168012040F2A042C4F202029142029087
:103C800064D0FFE708980168012040F2B842C4F20E
:103C900002029142029059D0FFE708980168012082
:103CA00045F20842C5F60202914202904ED0FFE76B
:103CB00008980168012045F21C42C5F602029142B3
:103CC000029043D0FFE708980168012045F2304296
:103CD000C5F602029142029038D0FFE708980168C9
:103CE000012045F24442C5F60202914202902DD0D5
:103CF000FFE708980168012045F25842C5F6020224
:103D00009142029022D0FFE708980168012045F215
:103D10006C42C5F602029142029017D0FFE7089864
:103D20000168012045F28042C5F6020291420290EC
:103D30000CD0FFE7089800684AF66C31CAF2FD71B2
:103D40000844B0FA80F040090290FFE70298C007EB
:103D500038B1FFE70898016E086820F480700860A9
:103D6000FFE7089800681021C4F20201884200F0C1
:103D70008180FFE7089800682821C4F20201884288
:103D800078D0FFE7089800684021C4F20201884219
:103D900070D0FFE7089800685821C4F202018842F9
:103DA00068D0FFE7089800687021C4F202018842D9
:103DB00060D0FFE7089800688821C4F202018842B9
:103DC00058D0FFE708980068A021C4F20201884299
:103DD00050D0FFE708980068B821C4F20201884279
:103DE00048D0FFE70898006840F21041C4F2020191
:103DF00088423FD0FFE70898006840F22841C4F2AB
:103E00000201884236D0FFE70898006840F240413E
:103E1000C4F2020188422DD0FFE70898006840F202
:103E20005841C4F20201884224D0FFE70898006894
:103E300040F27041C4F2020188421BD0FFE70898AB
:103E4000006840F28841C4F20201884212D0FFE7C4
:103E50000898006840F2A041C4F20201884209D0EB
:103E6000FFE70898006840F2B841C4F202018842B6
:103E700007D1FFE708980168086820F00100086092
:103E800006E008980168086820F001000860FFE774
:103E9000FFE705980068C007C8B1FFE704F0CCFB56
:103EA0000499401A062811D3FFE708992020486595
:103EB0000899032081F83500FFE70899002081F870
:103EC0003400FFE701208DF82700FDE1E1E70898C5
:103ED000016801201022C4F202029142019000F018
:103EE000A380FFE70898016801202822C4F202029B
:103EF0009142019000F09880FFE708980168012046
:103F00004022C4F202029142019000F08D80FFE74E
:103F10000898016801205822C4F2020291420190DF
:103F200000F08280FFE70898016801207022C4F247
:103F300002029142019077D0FFE7089801680120C2
:103F40008822C4F20202914201906DD0FFE70898E6
:103F500001680120A022C4F202029142019063D0C4
:103F6000FFE7089801680120B822C4F202029142DA
:103F7000019059D0FFE708980168012040F21042F3
:103F8000C4F20202914201904ED0FFE70898016806
:103F9000012040F22842C4F202029142019043D033
:103FA000FFE708980168012040F24042C4F2020293
:103FB0009142019038D0FFE708980168012040F253
:103FC0005842C4F20202914201902DD0FFE70898B6
:103FD0000168012040F27042C4F202029142019055
:103FE00022D0FFE708980168012040F28842C4F21D
:103FF00002029142019017D0FFE708980168012062
:1040000040F2A042C4F20202914201900CD0FFE7BC
:10401000089800684FF64831CBF6FD710844B0FAB5
:1040200080F040090190FFE70198C00760B1FFE709
:104030000898806D07900898C06D00F01F013F2020
:104040008840079988600BE00898806D0690089872
:10405000C06D00F01F010120884006994860FFE70D
:104060000898016801201022C4F2020291420090D7
:1040700000F00381FFE70898016801202822C4F2BC
:1040800002029142009000F0F880FFE70898016872
:1040900001204022C4F202029142009000F0ED8023
:1040A000FFE70898016801205822C4F202029142F9
:1040B000009000F0E280FFE708980168012070227C
:1040C000C4F202029142009000F0D780FFE7089806
:1040D000016801208822C4F202029142009000F09F
:1040E000CC80FFE7089801680120A022C4F20202F8
:1040F0009142009000F0C180FFE70898016801201C
:10410000B822C4F202029142009000F0B680FFE7AC
:1041100008980168012040F21042C4F20202914264
:10412000009000F0AA80FFE708980168012040F2A3
:104130002842C4F202029142009000F09E80FFE704
:1041400008980168012040F24042C4F20202914204
:10415000009000F09280FFE708980168012040F28B
:104160005842C4F202029142009000F08680FFE7BC
:1041700008980168012040F27042C4F202029142A4
:1041800000907AD0FFE708980168012040F2884249
:10419000C4F20202914200906FD0FFE708980168D4
:1041A000012040F2A042C4F202029142009064D089
:1041B000FFE708980168012040F2B842C4F2020209
:1041C0009142009059D0FFE708980168012045F21C
:1041D0000842C5F60202914200904ED0FFE70898CF
:1041E0000168012045F21C42C5F60202914200908E
:1041F00043D0FFE708980168012045F23042C5F638
:1042000002029142009038D0FFE70898016801202F
:1042100045F24442C5F60202914200902DD0FFE7DC
:1042200008980168012045F25842C5F60202914201
:10423000009022D0FFE708980168012045F26C4207
:10424000C5F602029142009017D0FFE70898016876
:10425000012045F28042C5F60202914200900CD046
:10426000FFE7089800684AF66C31CAF2FD7108440D
:10427000B0FA80F040090090FFE70098C007A0B1B5
:10428000FFE70898416E806E48600898C06E58B18C
:10429000FFE70898C16E086820F4807008600898ED
:1042A000016F406F4860FFE7FFE70899012081F840
:1042B0003500FFE70899002081F83400FFE7FFE7A9
:1042C00000208DF82700FFE79DF827000AB080BD89
:1042D00080B586B00490049820B9FFE701208DF8DE
:1042E000170046E3049890F83500022807D0FFE74E
:1042F00004998020486501208DF8170039E304985F
:10430000016801201022C4F202029142029000F0E2
:10431000A380FFE70498016801202822C4F202026A
:104320009142029000F09880FFE704980168012014
:104330004022C4F202029142029000F08D80FFE719
:104340000498016801205822C4F2020291420290AE
:1043500000F08280FFE70498016801207022C4F217
:1043600002029142029077D0FFE704980168012091
:104370008822C4F20202914202906DD0FFE70498B5
:1043800001680120A022C4F202029142029063D08F
:10439000FFE7049801680120B822C4F202029142AA
:1043A000029059D0FFE704980168012040F21042C2
:1043B000C4F20202914202904ED0FFE704980168D5
:1043C000012040F22842C4F202029142029043D0FE
:1043D000FFE704980168012040F24042C4F2020263
:1043E0009142029038D0FFE704980168012040F222
:1043F0005842C4F20202914202902DD0FFE7049885
:104400000168012040F27042C4F20202914202901F
:1044100022D0FFE704980168012040F28842C4F2EC
:1044200002029142029017D0FFE704980168012030
:1044300040F2A042C4F20202914202900CD0FFE787
:10444000049800684FF64831CBF6FD710844B0FA85
:1044500080F040090290FFE70298C007002800F0B2
:104460009D80FFE70499042081F8350004980068D6
:104470001021C4F20201884200F08180FFE7049815
:1044800000682821C4F20201884278D0FFE704982E
:1044900000684021C4F20201884270D0FFE704980E
:1044A00000685821C4F20201884268D0FFE70498EE
:1044B00000687021C4F20201884260D0FFE70498CE
:1044C00000688821C4F20201884258D0FFE70498AE
:1044D0000068A021C4F20201884250D0FFE704988E
:1044E0000068B821C4F20201884248D0FFE704986E
:1044F000006840F21041C4F2020188423FD0FFE759
:104500000498006840F22841C4F20201884236D083
:10451000FFE70498006840F24041C4F2020188427B
:104520002DD0FFE70498006840F25841C4F2020120
:10453000884224D0FFE70498006840F27041C4F23A
:10454000020188421BD0FFE70498006840F28841CE
:10455000C4F20201884212D0FFE70498006840F2DA
:10456000A041C4F20201884209D0FFE70498006824
:1045700040F2B841C4F20201884207D1FFE7049833
:104580000168086820F00100086006E004980168EE
:10459000086820F001000860FFE7E5E10498016881
:1045A000086820F00E000860049800681021C4F22A
:1045B0000201884200F08180FFE70498006828210A
:1045C000C4F20201884278D0FFE7049800684021D5
:1045D000C4F20201884270D0FFE7049800685821B5
:1045E000C4F20201884268D0FFE704980068702195
:1045F000C4F20201884260D0FFE704980068882175
:10460000C4F20201884258D0FFE704980068A02154
:10461000C4F20201884250D0FFE704980068B82134
:10462000C4F20201884248D0FFE70498006840F2D3
:104630001041C4F2020188423FD0FFE704980068AD
:1046400040F22841C4F20201884236D0FFE70498C4
:10465000006840F24041C4F2020188422DD0FFE7D9
:104660000498006840F25841C4F20201884224D004
:10467000FFE70498006840F27041C4F202018842EA
:104680001BD0FFE70498006840F28841C4F20201A1
:10469000884212D0FFE70498006840F2A041C4F2BB
:1046A0000201884209D0FFE70498006840F2B8414F
:1046B000C4F20201884207D1FFE704980168086844
:1046C00020F00100086006E004980168086820F006
:1046D00001000860FFE70498016801201022C4F27D
:1046E00002029142019000F00381FFE70498016803
:1046F00001202822C4F202029142019000F0F880C9
:10470000FFE70498016801204022C4F202029142AE
:10471000019000F0ED80FFE7049801680120582225
:10472000C4F202029142019000F0E280FFE7049897
:10473000016801207022C4F202029142019000F04F
:10474000D780FFE70498016801208822C4F20202A2
:104750009142019000F0CC80FFE7049801680120AD
:10476000A022C4F202029142019000F0C180FFE752
:10477000049801680120B822C4F20202914201901B
:1047800000F0B680FFE704980168012040F2104273
:10479000C4F202029142019000F0AA80FFE704985F
:1047A0000168012040F22842C4F2020291420190C5
:1047B00000F09E80FFE704980168012040F240422B
:1047C000C4F202029142019000F09280FFE7049847
:1047D0000168012040F25842C4F202029142019065
:1047E00000F08680FFE704980168012040F27042E3
:1047F000C4F20202914201907AD0FFE70498016866
:10480000012040F28842C4F20202914201906FD02E
:10481000FFE704980168012040F2A042C4F20202BE
:104820009142019064D0FFE704980168012040F2B2
:10483000B842C4F202029142019059D0FFE70498B5
:104840000168012045F20842C5F60202914201903A
:104850004ED0FFE704980168012045F21C42C5F6DE
:1048600002029142019043D0FFE7049801680120C1
:1048700045F23042C5F602029142019038D0FFE77E
:1048800004980168012045F24442C5F602029142B3
:1048900001902DD0FFE704980168012045F25842AD
:1048A000C5F602029142019022D0FFE70498016808
:1048B000012045F26C42C5F602029142019017D0E8
:1048C000FFE704980168012045F28042C5F6020224
:1048D000914201900CD0FFE7049800684AF66C31D1
:1048E000CAF2FD710844B0FA80F040090190FFE778
:1048F0000198C00728B3FFE70498016E086820F408
:10490000807008600498806D03900498C06D00F07A
:104910001F0101208840039948600498416E806E11
:1049200048600498C06E58B1FFE70498C16E0868EB
:1049300020F4807008600498016F406F4860FFE7C2
:10494000FFE70499012081F83500FFE70499002072
:1049500081F83400FFE70498006D20B1FFE7049868
:10496000016D8847FFE7FFE7FFE700208DF817009C
:10497000FFE79DF8170006B080BD000000000000B2
:1049800080B590B00F9000200B9040F23410C2F22E
:104990000040006848F2B511C1F64E31A0FB01108D
:1049A000800A0A900F98806D09900F98806D08908A
:1049B000099800680E90089800680D900F9801689B
:1049C00001201022C4F202029142079000F0A3805D
:1049D000FFE70F98016801202822C4F202029142E9
:1049E000079000F09880FFE70F98016801204022AF
:1049F000C4F202029142079000F08D80FFE70F9809
:104A0000016801205822C4F202029142079000F08E
:104A10008280FFE70F98016801207022C4F2020231
:104A20009142079077D0FFE70F9801680120882214
:104A3000C4F20202914207906DD0FFE70F9801681F
:104A40000120A022C4F202029142079063D0FFE746
:104A50000F9801680120B822C4F202029142079027
:104A600059D0FFE70F980168012040F21042C4F2CC
:104A70000202914207904ED0FFE70F980168012093
:104A800040F22842C4F202029142079043D0FFE76D
:104A90000F980168012040F24042C4F202029142A4
:104AA000079038D0FFE70F980168012040F2584284
:104AB000C4F20202914207902DD0FFE70F980168DF
:104AC000012040F27042C4F202029142079022D0CB
:104AD000FFE70F980168012040F28842C4F2020209
:104AE0009142079017D0FFE70F980168012040F22C
:104AF000A042C4F20202914207900CD0FFE70F9847
:104B000000684FF64831CBF6FD710844B0FA80F0EA
:104B100040090790FFE70798C007002800F01385B9
:104B2000FFE70E980F99C96D01F01F01C8400007FB
:104B3000002840F1B080FFE70F9800681021C4F210
:104B40000201884200F08180FFE70F980068282169
:104B5000C4F20201884278D0FFE70F980068402134
:104B6000C4F20201884270D0FFE70F980068582114
:104B7000C4F20201884268D0FFE70F9800687021F4
:104B8000C4F20201884260D0FFE70F9800688821D4
:104B9000C4F20201884258D0FFE70F980068A021B4
:104BA000C4F20201884250D0FFE70F980068B82194
:104BB000C4F20201884248D0FFE70F98006840F233
:104BC0001041C4F2020188423FD0FFE70F9800680D
:104BD00040F22841C4F20201884236D0FFE70F9824
:104BE000006840F24041C4F2020188422DD0FFE744
:104BF0000F98006840F25841C4F20201884224D064
:104C0000FFE70F98006840F27041C4F20201884249
:104C10001BD0FFE70F98006840F28841C4F2020100
:104C2000884212D0FFE70F98006840F2A041C4F21A
:104C30000201884209D0FFE70F98006840F2B841AE
:104C4000C4F20201884207D1FFE70F9800680068AC
:104C500000F00400069006E00F980068006800F07D
:104C600008000690FFE70698A0B1FFE70F980168DB
:104C7000086820F0040008600F98C06D00F01F0164
:104C800008208840099988600F99486D40F001001C
:104C90004865FFE7FFE70E980F99C96D01F01F0106
:104CA000C840C007002800F0A980FFE70F980068FF
:104CB0001021C4F20201884200F08180FFE70F98C2
:104CC00000682821C4F20201884278D0FFE70F98DB
:104CD00000684021C4F20201884270D0FFE70F98BB
:104CE00000685821C4F20201884268D0FFE70F989B
:104CF00000687021C4F20201884260D0FFE70F987B
:104D000000688821C4F20201884258D0FFE70F985A
:104D10000068A021C4F20201884250D0FFE70F983A
:104D20000068B821C4F20201884248D0FFE70F981A
:104D3000006840F21041C4F2020188423FD0FFE710
:104D40000F98006840F22841C4F20201884236D030
:104D5000FFE70F98006840F24041C4F20201884228
:104D60002DD0FFE70F98006840F25841C4F20201CD
:104D7000884224D0FFE70F98006840F27041C4F2E7
:104D8000020188421BD0FFE70F98006840F288417B
:104D9000C4F20201884212D0FFE70F98006840F287
:104DA000A041C4F20201884209D0FFE70F980068D1
:104DB00040F2B841C4F20201884207D1FFE70F98E0
:104DC0000068406900F08000059005E00F980068D9
:104DD000006800200590FFE7059870B1FFE70F9885
:104DE000C06D00F01F0101208840099988600F996B
:104DF000486D40F002004865FFE7FFE70E980F9905
:104E0000C96D01F01F01C8404007002840F1A9808A
:104E1000FFE70F9800681021C4F20201884200F0F9
:104E20008180FFE70F9800682821C4F202018842C0
:104E300078D0FFE70F9800684021C4F20201884251
:104E400070D0FFE70F9800685821C4F20201884231
:104E500068D0FFE70F9800687021C4F20201884211
:104E600060D0FFE70F9800688821C4F202018842F1
:104E700058D0FFE70F980068A021C4F202018842D1
:104E800050D0FFE70F980068B821C4F202018842B1
:104E900048D0FFE70F98006840F21041C4F20201C9
:104EA00088423FD0FFE70F98006840F22841C4F2E3
:104EB0000201884236D0FFE70F98006840F2404177
:104EC000C4F2020188422DD0FFE70F98006840F23B
:104ED0005841C4F20201884224D0FFE70F980068CD
:104EE00040F27041C4F2020188421BD0FFE70F98E4
:104EF000006840F28841C4F20201884212D0FFE704
:104F00000F98006840F2A041C4F20201884209D023
:104F1000FFE70F98006840F2B841C4F202018842EE
:104F200007D1FFE70F980068006800F002000490C6
:104F300005E00F980068006800200490FFE70498DF
:104F400070B1FFE70F98C06D00F01F01042088408A
:104F5000099988600F99486D40F004004865FFE7A3
:104F6000FFE70E980F99C96D01F01F01C840C006F8
:104F7000002840F1DE80FFE70F9800681021C4F29E
:104F80000201884200F08180FFE70F980068282125
:104F9000C4F20201884278D0FFE70F9800684021F0
:104FA000C4F20201884270D0FFE70F9800685821D0
:104FB000C4F20201884268D0FFE70F9800687021B0
:104FC000C4F20201884260D0FFE70F980068882190
:104FD000C4F20201884258D0FFE70F980068A02170
:104FE000C4F20201884250D0FFE70F980068B82150
:104FF000C4F20201884248D0FFE70F98006840F2EF
:105000001041C4F2020188423FD0FFE70F980068C8
:1050100040F22841C4F20201884236D0FFE70F98DF
:10502000006840F24041C4F2020188422DD0FFE7FF
:105030000F98006840F25841C4F20201884224D01F
:10504000FFE70F98006840F27041C4F20201884205
:105050001BD0FFE70F98006840F28841C4F20201BC
:10506000884212D0FFE70F98006840F2A041C4F2D6
:105070000201884209D0FFE70F98006840F2B8416A
:10508000C4F20201884207D1FFE70F980068006868
:1050900000F00800039006E00F980068006800F038
:1050A00004000390FFE70398002841D0FFE70F9822
:1050B000C06D00F01F0110208840099988600F988A
:1050C00000680068400300281AD5FFE70F980068C1
:1050D00000680003002809D4FFE70F98006C20B196
:1050E000FFE70F98016C8847FFE708E00F98806C96
:1050F00020B1FFE70F98816C8847FFE7FFE716E0D4
:105100000F9800680068C005002807D4FFE70F98D3
:105110000168086820F008000860FFE70F98006C3D
:1051200020B1FFE70F98016C8847FFE7FFE7FFE733
:10513000FFE70E980F99C96D01F01F01C840800666
:10514000002840F12681FFE70F9800681021C4F283
:105150000201884200F08180FFE70F980068282153
:10516000C4F20201884278D0FFE70F98006840211E
:10517000C4F20201884270D0FFE70F9800685821FE
:10518000C4F20201884268D0FFE70F9800687021DE
:10519000C4F20201884260D0FFE70F9800688821BE
:1051A000C4F20201884258D0FFE70F980068A0219E
:1051B000C4F20201884250D0FFE70F980068B8217E
:1051C000C4F20201884248D0FFE70F98006840F21D
:1051D0001041C4F2020188423FD0FFE70F980068F7
:1051E00040F22841C4F20201884236D0FFE70F980E
:1051F000006840F24041C4F2020188422DD0FFE72E
:105200000F98006840F25841C4F20201884224D04D
:10521000FFE70F98006840F27041C4F20201884233
:105220001BD0FFE70F98006840F28841C4F20201EA
:10523000884212D0FFE70F98006840F2A041C4F204
:105240000201884209D0FFE70F98006840F2B84198
:10525000C4F20201884207D1FFE70F980068006896
:1052600000F01000029006E00F980068006800F05F
:1052700002000290FFE70298002800F08980FFE713
:105280000F98C06D00F01F012020884009998860A8
:105290000F9890F83500042837D1FFE70F98016880
:1052A000086820F0160008600F980168486920F02F
:1052B000800048610F98006C20B9FFE70F98806C60
:1052C00038B1FFE70F980168086820F0080008600F
:1052D000FFE70F98C06D00F01F013F20884009993B
:1052E00088600F99012081F83500FFE70F990020B1
:1052F00081F83400FFE70F98006D20B1FFE70F98A9
:10530000016D8847FFE700F019BC0F98006800683E
:10531000400300281AD5FFE70F98006800680003D3
:10532000002809D4FFE70F98406C20B1FFE70F98E1
:10533000416C8847FFE708E00F98C06B20B1FFE79A
:105340000F98C16B8847FFE7FFE720E00F980068E0
:105350000068C005002811D4FFE70F9801680868AD
:1053600020F0100008600F99012081F83500FFE758
:105370000F99002081F83400FFE7FFE70F98C06B1A
:1053800020B1FFE70F98C16B8847FFE7FFE7FFE712
:10539000FFE70F98406D002800F0D480FFE70F98DA
:1053A000406DC007002800F0C480FFE70F9904207B
:1053B00081F835000F9800681021C4F2020188427C
:1053C00000F08180FFE70F9800682821C4F20201F5
:1053D000884278D0FFE70F9800684021C4F20201AC
:1053E000884270D0FFE70F9800685821C4F202018C
:1053F000884268D0FFE70F9800687021C4F202016C
:10540000884260D0FFE70F9800688821C4F202014B
:10541000884258D0FFE70F980068A021C4F202012B
:10542000884250D0FFE70F980068B821C4F202010B
:10543000884248D0FFE70F98006840F21041C4F25C
:10544000020188423FD0FFE70F98006840F22841F0
:10545000C4F20201884236D0FFE70F98006840F29C
:105460004041C4F2020188422DD0FFE70F98006846
:1054700040F25841C4F20201884224D0FFE70F985D
:10548000006840F27041C4F2020188421BD0FFE77D
:105490000F98006840F28841C4F20201884212D09D
:1054A000FFE70F98006840F2A041C4F20201884271
:1054B00009D0FFE70F98006840F2B841C4F202013A
:1054C000884207D1FFE70F980168086820F00100C3
:1054D000086006E00F980168086820F00100086085
:1054E000FFE7FFE70B9801300B900A99884201D93A
:1054F000FFE707E0FFE70F9800680068C007002893
:10550000F0D1FFE70F9800680068C00728B1FFE7F7
:105510000F99032081F8350004E00F99012081F8EC
:105520003500FFE7FFE70F99002081F83400FFE71F
:10553000FFE70F98C06C20B1FFE70F98C16C884758
:10554000FFE7FFE7FAE20F980168012045F2084201
:10555000C5F60202914201904ED0FFE70F98016814
:10556000012045F21C42C5F602029142019043D04F
:10557000FFE70F980168012045F23042C5F60202AC
:105580009142019038D0FFE70F980168012045F261
:105590004442C5F60202914201902DD0FFE70F98D8
:1055A0000168012045F25842C5F60202914201907D
:1055B00022D0FFE70F980168012045F26C42C5F642
:1055C00002029142019017D0FFE70F980168012075
:1055D00045F28042C5F60202914201900CD0FFE7ED
:1055E0000F9800684AF66C31CAF2FD710844B0FAAF
:1055F00080F040090190FFE70198C007002800F003
:105600009B82FFE70F98006800680C900D980F9937
:10561000C96D01F01F01C8404007002840F1D78044
:10562000FFE79DF830004007002840F1D080FFE7F9
:105630000F98C06D00F01F01042088400899486051
:105640009DF831000006002818D5FFE79DF83200CC
:10565000C00748B9FFE70F98806C20B1FFE70F98AB
:10566000816C8847FFE708E00F98006C20B1FFE7E6
:105670000F98016C8847FFE7FFE7A7E09DF830002F
:105680008006002800F19980FFE70F98006810213C
:10569000C4F20201884200F08180FFE70F980068A1
:1056A0002821C4F20201884278D0FFE70F980068F1
:1056B0004021C4F20201884270D0FFE70F980068D1
:1056C0005821C4F20201884268D0FFE70F980068B1
:1056D0007021C4F20201884260D0FFE70F98006891
:1056E0008821C4F20201884258D0FFE70F98006871
:1056F000A021C4F20201884250D0FFE70F98006851
:10570000B821C4F20201884248D0FFE70F98006830
:1057100040F21041C4F2020188423FD0FFE70F98E7
:10572000006840F22841C4F20201884236D0FFE707
:105730000F98006840F24041C4F2020188422DD027
:10574000FFE70F98006840F25841C4F20201884216
:1057500024D0FFE70F98006840F27041C4F20201C4
:1057600088421BD0FFE70F98006840F28841C4F2DE
:105770000201884212D0FFE70F98006840F2A04172
:10578000C4F20201884209D0FFE70F98006840F296
:10579000B841C4F20201884207D1FFE70F980168BF
:1057A000086820F00800086006E00F9801680868A3
:1057B00020F004000860FFE7FFE70F98006C20B1BD
:1057C000FFE70F98016C8847FFE7FFE7B3E10D980B
:1057D0000F99C96D01F01F01C8408007002840F1F2
:1057E000E180FFE79DF830008007002840F1DA8073
:1057F000FFE70F98C06D00F01F0102208840089954
:1058000048609DF831000006002818D5FFE79DF894
:105810003200C00748B9FFE70F98406C20B1FFE79E
:105820000F98416C8847FFE708E00F98C06B20B1E4
:10583000FFE70F98C16B8847FFE7FFE7B1E09DF8EE
:1058400030008006002800F1A380FFE70F98006871
:105850001021C4F20201884200F08180FFE70F9816
:1058600000682821C4F20201884278D0FFE70F982F
:1058700000684021C4F20201884270D0FFE70F980F
:1058800000685821C4F20201884268D0FFE70F98EF
:1058900000687021C4F20201884260D0FFE70F98CF
:1058A00000688821C4F20201884258D0FFE70F98AF
:1058B0000068A021C4F20201884250D0FFE70F988F
:1058C0000068B821C4F20201884248D0FFE70F986F
:1058D000006840F21041C4F2020188423FD0FFE765
:1058E0000F98006840F22841C4F20201884236D085
:1058F000FFE70F98006840F24041C4F2020188427D
:105900002DD0FFE70F98006840F25841C4F2020121
:10591000884224D0FFE70F98006840F27041C4F23B
:10592000020188421BD0FFE70F98006840F28841CF
:10593000C4F20201884212D0FFE70F98006840F2DB
:10594000A041C4F20201884209D0FFE70F98006825
:1059500040F2B841C4F20201884207D1FFE70F9834
:105960000168086820F01400086006E00F980168DC
:10597000086820F00A000860FFE70F99012081F80D
:105980003500FFE70F99002081F83400FFE7FFE7BB
:105990000F98C06B20B1FFE70F98C16B8847FFE7F6
:1059A000FFE7C7E00D980F99C96D01F01F01C840CE
:1059B0000007002840F1BC80FFE79DF83000000799
:1059C000002840F1B580FFE70F9800681021C4F26D
:1059D0000201884200F08180FFE70F9800682821CB
:1059E000C4F20201884278D0FFE70F980068402196
:1059F000C4F20201884270D0FFE70F980068582176
:105A0000C4F20201884268D0FFE70F980068702155
:105A1000C4F20201884260D0FFE70F980068882135
:105A2000C4F20201884258D0FFE70F980068A02115
:105A3000C4F20201884250D0FFE70F980068B821F5
:105A4000C4F20201884248D0FFE70F98006840F294
:105A50001041C4F2020188423FD0FFE70F9800686E
:105A600040F22841C4F20201884236D0FFE70F9885
:105A7000006840F24041C4F2020188422DD0FFE7A5
:105A80000F98006840F25841C4F20201884224D0C5
:105A9000FFE70F98006840F27041C4F202018842AB
:105AA0001BD0FFE70F98006840F28841C4F2020162
:105AB000884212D0FFE70F98006840F2A041C4F27C
:105AC0000201884209D0FFE70F98006840F2B84110
:105AD000C4F20201884207D1FFE70F980168086805
