:020000040800F2
:1000000000BD0124BD03000889A10008798800080B
:1000100081A100080910000869CB00080000000059
:1000200000000000000000000000000021B30008F4
:10003000211600080000000021AE000869B3000886
:10004000DB030008DB030008DB030008DB03000818
:10005000DB030008DB030008DB030008DB03000808
:10006000DB030008DB030008DB03000809110008BC
:100070001911000829110008DB03000839110008D4
:1000800049110008DB030008DB030008E91600083B
:1000900009170008F916000819170008DB03000803
:1000A000DB030008DB030008DB030008DB030008B8
:1000B00041B50008DB030008DB030008DB03000890
:1000C000DB030008DB030008DB030008DB03000898
:1000D00021B2000831C8000851C90008DB0300083C
:1000E000DB030008DB0300080000000051B5000836
:1000F000DB030008DB030008DB030008DB03000868
:10010000DB030008DB030008DB030008DB03000857
:10011000DB030008DB030008DB030008DB03000847
:100120005911000869110008DB030008DB0300080F
:10013000DB030008DB030008DB030008DB03000827
:1001400000000000000000000000000000000000AF
:10015000DB030008DB030008DB030008DB03000807
:10016000DB030008DB030008DB030008DB030008F7
:10017000DB030008DB030008DB03000800000000CD
:10018000DB030008DB030008DB030008DB030008D7
:10019000DB030008DB030008DB030008DB030008C7
:1001A000DB030008DB030008DB030008000000009D
:1001B000DB030008DB030008DB030008DB030008A7
:1001C000DB030008DB030008000000000000000063
:1001D0000000000000000000DB0300080000000039
:1001E000000000000000000000000000000000000F
:1001F0000000000000000000DB030008DB03000833
:10020000DB030008DB03000800000000DB0300083C
:10021000DB030008DB030008DB030008DB03000846
:10022000DB03000800000000DB0300080000000002
:10023000DB030008DB03000800000000DB0300080C
:10024000DB030008DB030008DB030008DB03000816
:10025000DB030008DB030008DB030008DB03000806
:10026000DB030008DB030008DB030008DB030008F6
:10027000DB030008DB030008DB03000800000000CC
:10028000DB030008DB030008DB030008DB030008D6
:1002900000000000DB030008DB0300080000000092
:1002A00000000000DB030008DB030008DB0300089C
:1002B000DB030008DB030008DB0300082917000844
:1002C00039170008DB030008DB03000800F002F820
:1002D00000F065F80AA090E8000C82448344AAF17B
:1002E0000107DA4501D100F05AF8AFF2090EBAE879
:1002F0000F0013F0010F18BFFB1A43F0010318475A
:1003000098090100B80901000A444FF0000C10F8E8
:10031000013B13F0070408BF10F8014B1D1108BF83
:1003200010F8015B641E05D010F8016B641E01F823
:10033000016BF9D113F0080F1EBF10F8014BAD1C73
:100340000C1B09D16D1E58BF01F801CBFAD505E091
:1003500014F8016B01F8016B6D1EF9D59142D6D3EB
:10036000704700000023002400250026103A28BF13
:1003700078C1FBD8520728BF30C148BF0B60704717
:10038000642900F04981002070471FB50FF0C9FDB6
:100390009DE8030000F0F8FA1FBD10B510BD00F095
:1003A000C7FB1146FFF7F1FF0EF066FB00F0E5FB1F
:1003B00003B4FFF7F2FF03BC00F016FC0A488047C5
:1003C0000A4880470A480047FEE7FEE7FEE7FEE7E7
:1003D000FEE7FEE7FEE7FEE7FEE7FEE70548064923
:1003E000064A074B70470000B916000869B40008B8
:1003F000CD02000800A5012400BD012400AD0124A8
:1004000000AD012470B5064600F0A2FA056806F1B9
:100410000B0020F00704B4429CBF002070BD2B46A7
:100420006A68BAB11068A04210D304F1080188428A
:100430003CBF5068586007D351681019416011687B
:10044000091B016058601460101D70BD134652688E
:10045000002AE7D12146284600F082FA0028DED1A2
:1004600070BD70B50446051F00F072FA0068002CDC
:1004700014BF446870BD002C18BFAC423CBF20467E
:100480006468F8D301680A18AA4218BF456003D10E
:100490002A6805461144016028684119A1421CBF21
:1004A0006C6070BD6168696021680844286070BD37
:1004B00053EA020C00F069802DE9F04B4FF0000682
:1004C000002B1FBFB3FA83F503FA05F424FA05F6EF
:1004D0005E4012BF1643B2FA82F502FA05F4C5F186
:1004E00020051EBF22FA05FC44EA0C04203556EA1A
:1004F000044C4FEA144418BF641C4FF000084FF03E
:100500000009904271EB030C39D3002919BFB1FAED
:1005100081F701FA07F6B0FA80F700FA07F6C7F19B
:1005200020071EBF20FA07FC46EA0C062037B6FB60
:10053000F4FCA7EB0507103F07F01F0BCBF12006DB
:100540002CFA06F60CFA0BFB44BFB3460026202F0C
:10055000A4BF5E464FF0000B5BEA060C08BF4FF0ED
:10056000010B19EB0B0948EB0608ABFB027C06FB01
:1005700002CC0BFB03CCC01B71EB0C01C1E70B469B
:10058000024641464846BDE8F08B13B5084318BF04
:100590004FF0FF300146AFF30080BDE81C407047CC
:1005A0000FB41CB5074B06AA7B446946009005981A
:1005B00000F07FFA0020694600F08EFA1CBC5DF85E
:1005C00014FB00002D05000070B504468569006825
:1005D000C10601D5302600E02026C00707D070BD37
:1005E000D4E9012130469047206A401C20626D1EEC
:1005F000F6D570BD70B5044685690078C00707D18F
:1006000070BDD4E9012120209047206A401C20625F
:100610006D1EF6D570BD00002DE9F04106460024A0
:1006200010687529314616A510D0AFF30080002858
:1006300002DA404213A507E031688A0701D512A506
:1006400002E0490704D511A5012401E0AFF30080C1
:1006500000210A2206F1240709E0B0FBF2FCB0FBFE
:10066000F2F302FB1C00303078541846491C002875
:10067000F3D123462A463046BDE8F04100F0BAB92E
:10068000000000002D0000002B00000020000000F2
:100690002DE9F05F894604464FF0000ADFF824B1E7
:1006A000FB44C0F820A02046E168884700287DD0A0
:1006B000252806D0D4E901219047206A401C2062F9
:1006C000F1E700255F462046E16888472028064676
:1006D00007DB312E05D2B81910F8200C08B10543FC
:1006E000F1E7A80701D525F00405C4F81CA00027F0
:1006F000C4F818A02A2E09D030460FF00BFC38B3EE
:1007000004EB8708303EC8F8186019E059F8041B5C
:10071000204604EB87029161E1688847012F064675
:1007200018D1E069002820DA25F020051DE0D8F86E
:10073000180000EB800006EB40003038C8F81800C5
:100740002046E168884706460FF0E4FB0028EED11A
:10075000012F0AD02E2E08D12046E16888477F1C41
:100760000646022F45F02005C4DBA069002803DA05
:10077000404245F00105A061E80701D025F01005D1
:10078000A6B1A6F14100192802D8203645F400652B
:100790004A463146204625604D46FFF7F1FD60B1DF
:1007A000012807D0ED1D25F0070000E007E000F16B
:1007B000080978E705F1040975E730467AE7206A09
:1007C000BDE8F09F98F80000032A40F2308010F056
:1007D000030C00F0158011F8013BBCF1020F6244DC
:1007E00098BF11F801CB00F8013B38BF11F8013B6D
:1007F000A2F1040298BF00F801CB38BF00F8013B1A
:1008000011F0030300F02580083AC0F0088051F889
:10081000043B083A51F804CBA0E80810F5E7121D94
:100820005CBF51F8043B40F8043BAFF30080D207B3
:1008300024BF11F8013B11F801CB48BF11F8012B7F
:1008400024BF00F8013B00F801CB48BF00F8012BA2
:10085000704710B5203AC0F00B80B1E81850A0E8FE
:100860001850B1E81850A0E81850203ABFF4F5AF7E
:100870005FEA027C24BFB1E81850A0E8185044BFDA
:1008800018C918C0BDE810405FEA827C24BF51F847
:10089000043B40F8043B08BF7047D20728BF31F83B
:1008A000023B48BF11F8012B28BF20F8023B48BF8C
:1008B00000F8012B70474FF000020429C0F01280AD
:1008C00010F0030C00F01B80CCF1040CBCF1020F03
:1008D00018BF00F8012BA8BF20F8022BA1EB0C01D8
:1008E00000F00DB85FEAC17C24BF00F8012B00F8CE
:1008F000012B48BF00F8012B70474FF0000200B5F4
:10090000134694469646203922BFA0E80C50A0E832
:100910000C50B1F12001BFF4F7AF090728BFA0E8E0
:100920000C5048BF0CC05DF804EB890028BF40F8AC
:10093000042B08BF704748BF20F8022B11F0804FEE
:1009400018BF00F8012B70477047704770470000D0
:10095000004870475801002470477047704770473F
:1009600038B504460A4600206946AFF300800028E7
:1009700008BF38BD02460099204600F0B7F80120B4
:1009800038BD012000F0CCB8F8B5AFF300800546C3
:1009900000200C46102000BF0646A819A0420DD921
:1009A000324669460020AFF30080070008BF00F020
:1009B000B7F80098A04218BF0546C419FFF7C8FF52
:1009C00005600746F01D20F007004619284600F094
:1009D0000AF8B44208BFF8BDA21B31463868BDE82A
:1009E000F84000F083B800210160C0E901107047B1
:1009F000102070472DE9F0470D469946924604466F
:100A000000F124080168880604D5E06921F010018E
:100A1000216000E00120A84201DD471B00E0002723
:100A2000A1697A1902EB0900081AA0612078C006B2
:100A300002D42046FFF7C8FD002608E0D4E90121D2
:100A40001AF806009047206A401C761C20624E452A
:100A5000F4DB2078C0060AD52046FFF7B5FD06E096
:100A6000D4E9012130209047206A401C2062381EC2
:100A7000A7F10107F4DC07E0D4E9012118F805002B
:100A80009047206A401C2062281EA5F10105F3DC76
:100A90002046FFF7AFFD2078000602D50220BDE812
:100AA000F0870120FBE7000001694A1C0261087819
:100AB000704700B58FB0CDE901310021059105499E
:100AC0007944CDE9031011466846FFF7E1FD0FB008
:100AD00000BD0000E5FFFFFF0A6802F8010B0A6095
:100AE00070470000004870475001002403464068EA
:100AF0008C46002818BF88423CBF03464068F8D3A4
:100B000018681844884207D00CF1030020F0070051
:100B1000001D411A521A0146081D0A60FFF7A1BCC8
:100B200010B500F039F8BDE8104000F02FB870475C
:100B30007546FFF7D7FFAE4605006946534620F0DD
:100B40000700854618B020B5FFF748FCBDE82040F7
:100B50004FF000064FF000074FF000084FF0000B79
:100B6000AC46ACE8C009ACE8C009ACE8C009ACE8E8
:100B7000C00921F007018D46704710B50446AFF358
:100B800000802046BDE81040FFF712BC002801D0CD
:100B900000F02AB87047000010B5012805D00021E8
:100BA00003A000F027F8012010BD09A1F8E700001C
:100BB00053494752544D454D3A204F7574206F6646
:100BC0002068656170206D656D6F727900000000AE
:100BD0003A2048656170206D656D6F727920636F92
:100BE000727275707465640001491820ABBEFEE72F
:100BF0002600020070B505460C460A2000E06D1C78
:100C000000F011F835B128780028F8D102E0641C12
:100C100000F009F814B120780028F8D1BDE8704040
:100C20000A20AFF3008008B569468DF80000032064
:100C3000ABBE08BD0000000080B541F2BC104AF216
:100C40001011C2F20040C2F201414FF4807206F06E
:100C500093FF40F6EC4040F20F41C2F20040C4F274
:100C60000201006888426FF0080111DC6F22C4F2B3
:100C70000202904222DC3F22C4F20202904239DC9E
:100C80001022C4F2020290425CD0282254E000BF3D
:100C900040F26F42C4F2020290421BDC40F23F423B
:100CA000C4F2020290422DDC40F21042C4F2020271
:100CB000904247D040F228423EE000BF9F22C4F25B
:100CC0000202904228DC7022C4F20202904239D023
:100CD000882231E040F29F42C4F20202904223DCBB
:100CE00040F27042C4F2020290422BD040F288429D
:100CF00022E000BF4022C4F20202904222D05822D9
:100D00001AE000BF40F24042C4F20202904219D001
:100D100040F2584210E000BFA022C4F2020290420A
:100D200010D0B82208E000BF40F2A042C4F2020294
:100D3000904207D040F2B842C4F20202904218BF7B
:100D40006FF0040102681140016080BD00000000E6
:100D5000B0B54AF21010C2F201400178AA2940F061
:100D60008D8090F83F10FE2918BFB0BD40F2F461AD
:100D7000B0F80120C2F20041B0F90B50B0F80330D6
:100D800041F250244A81B0F9092001EE105AA1F82D
:100D9000CA3000EE102AB0F90D309FED392AC2F2A8
:100DA0000044B8EEC11AB0F90F50B8EEC00AB0F85E
:100DB0000520A1F88A21B0F8072081EE021AA1F8D7
:100DC0004A2280EE020A84ED041A84ED030A00EE42
:100DD000103A01EE105A40F25035427CC2F2004502
:100DE000B8EEC00A84F8B120B8EEC11A90F83E00FF
:100DF0006870AB2080EE020A1E2284ED0C0A81EEA0
:100E0000020A84ED100A2C4604F80C0F4888A5F855
:100E10000D00B1F8C200A5F80F00B1F88201A5F8E5
:100E20001100B1F8420240F2B001A5F81300C2F27D
:100E30000041088840F2F531A5F815004AF2142067
:100E4000C2F20140C2F20041D0F88C00C5F8170090
:100E500005F11B00FFF7B8FCA878402285F84A008E
:100E6000FD2085F84B0041F2BC10C2F20040012188
:100E700029702146BDE8B04007F08ABCB0BD00BF74
:100E800000007A440000000040F600000121C5F691
:100E90000200012203F080BA40F600000121C5F6ED
:100EA0000200002203F078BA704700000000000042
:100EB00040F600000821C5F60200012203F06CBADA
:100EC00040F600000821C5F60200002203F064BAD3
:100ED000704700000000000010B5002808BF10BDDA
:100EE0004EF2180145F2003CCEF20001C0F2070CB0
:100EF00003E000BF013802041AD051F804EC0B687B
:100F0000002208E01A44A342A2EB0402234698BF41
:100F100072446245EED20C68A342F3D10C68A3423E
:100F200004BF0C68A342EDD10C68A342F3D0E9E7FB
:100F300010BD00000000000080B54EF21801C0EBAB
:100F40000010CEF200014FEA401E002351F804CCFD
:100F50000A6808E013448242A3EB0003024698BFEC
:100F6000634473450CD208688242F3D10868824218
:100F700004BF08688242EDD108688242F3D0E9E7F5
:100F800080BD00000000000010B5FFF78DFFFFF7E7
:100F90009FFF0DF03DFB04460DF062FC204310BDA9
:100FA00080B582B08DF8070040F6BC70C2F20040F8
:100FB0000DF107010DF1060201234FF47A7CCDF803
:100FC00000C005F00DFA9DF8060002B080BD0000DB
:100FD00010B541F244000421C2F2004006F004FAC8
:100FE00041F204343221C2F20044204609F0DCFF11
:100FF00041F218310422C2F200412046BDE81040FF
:1010000009F086BF00000000FEE7000000000000BD
:1010100070B58AB040F6DC5502ACC2F2004500263D
:101020000220049001202146CDE9050628460796B6
:10103000CDE9026602F0A8F9022102220023284627
:10104000009602F0E9F901210022284602F0A4F8F6
:101050004FF000710022284602F09EF80121012283
:10106000284602F05DF9284603F07AF840F67C65E0
:101070002146C2F20045284602F086F902210222EA
:1010800000232846009602F0C7F9012101222846D4
:1010900002F046F901210022284602F07DF84FF0C7
:1010A00000710022284602F077F8284603F058F82D
:1010B00040F61C752146C2F20045284602F064F94C
:1010C0000221022200232846009602F0A5F9012100
:1010D0000122284602F024F901210022284602F0CC
:1010E0005BF84FF000710022284602F055F82846C0
:1010F00003F036F80AB070BD018000994280838009
:10110000817170470000000040F69420C2F2004058
:1011100000F012BF0000000040F60C30C2F20040A8
:1011200000F00ABF0000000040F68430C2F2004028
:1011300000F002BF0000000040F6EC40C2F20040A8
:1011400000F0FABE0000000040F66450C2F2004019
:1011500000F0F2BE0000000040F6FC30C2F2004099
:1011600000F0EABE0000000040F67440C2F2004009
:1011700000F0E2BE0000000040F20F42D0F800C0D4
:10118000C4F20202944511DC6F22C4F202029445BB
:1011900022DC3F22C4F20202944539DC1022C4F260
:1011A000020294455AD0282254E000BF40F26F4218
:1011B000C4F2020294451BDC40F23F42C4F2020238
:1011C00094452DDC40F21042C4F20202944545D011
:1011D00040F228423EE000BF9F22C4F20202944542
:1011E00028DC7022C4F20202944537D0882231E014
:1011F00040F29F42C4F20202944523DC40F2704266
:10120000C4F20202944529D040F2884222E000BF95
:101210004022C4F20202944520D058221AE000BFB6
:1012200040F24042C4F20202944517D040F25842C4
:1012300010E000BFA022C4F2020294450ED0B822F2
:1012400008E000BF40F2B842C4F20202944505D063
:1012500040F2A042C4F20202944517D10CF0F80209
:101260004AF6AB23103ACAF6AA23A2FB03310AA31B
:101270005F2AC1F302115B5C40F2FF312CEA0101ED
:10128000C36588BF04318165084670472CF0FF01B3
:1012900081650846704700BF00061016000610164C
:1012A00070B540F26F44D0F800C0C4F20204D0F828
:1012B00058E0A4451ADC9F25C4F20205AC4533DC96
:1012C0005725C4F20205AC455ADC1025C4F20205CC
:1012D000AC4500F098802825C4F20205AC4500F02A
:1012E00092804025C4F202058AE000BF45F22F45F6
:1012F000C5F60205AC452DDC40F2B745C4F2020547
:10130000AC454BDC40F27045C4F20205AC457AD0E6
:1013100040F28845C4F20205AC4574D040F2A045C5
:10132000C4F202056CE000BF40F22745C4F202059A
:10133000AC4543DCA025C4F20205AC4563D0B8251A
:10134000C4F20205AC455ED040F21045C4F202057D
:1013500056E000BF45F26B45C5F60205AC453FDCE3
:1013600045F23045C5F60205AC454CD045F2444542
:10137000C5F60205AC4546D045F258453EE000BFF3
:101380005825C4F20205AC453DD07025C4F20205D3
:10139000AC4538D08825C4F2020531E040F2B845AA
:1013A000C4F20205AC452ED045F20845C5F602054B
:1013B000AC4528D045F21C4520E000BF40F228454E
:1013C000C4F20205AC451ED040F24045C4F202050D
:1013D000AC4518D040F25845C4F2020510E000BFF9
:1013E00045F26C45C5F60205AC450CD045F2944576
:1013F000C5F60205AC4506D045F28045C5F60205A6
:10140000AC4540F0D580456EC66E002E866E6E608F
:101410001CBFD0E91C566E60A44515DC9F24C4F2A5
:101420000204A4452CDC5724C4F20204A44551DC78
:101430001024C4F20204A4457AD02824C4F2020481
:10144000A44575D040246FE045F22F44C5F6020450
:10145000A44529DC40F2B744C4F20204A44545DCAB
:1014600040F27044C4F20204A44561D040F28844C2
:10147000C4F20204A4455BD040F2A04454E000BF93
:1014800040F22744C4F20204A4453FDCA024C4F285
:101490000204A4454CD0B824C4F20204A44547D0A9
:1014A00040F2104440E000BF45F26B44C5F6020430
:1014B000A44555DC45F23044C5F60204A44561D08C
:1014C00045F24444C5F60204A4455BD045F25844B5
:1014D00054E000BF5824C4F20204A44528D070246C
:1014E000C4F20204A44523D088241DE040F2B8448D
:1014F000C4F20204A4451BD045F20844C5F6020418
:10150000A4453FD045F21C4438E000BF40F22844D7
:10151000C4F20204A4450BD040F24044C4F20204D9
:10152000A44505D040F25844C4F20204A4453FD17A
:101530008468C06D00F01F003F2505FA00F0CEF86A
:101540000800DCF80000402C20F48020CCF80000DB
:10155000CCF8043023D0CCF80810CCF80C2070BDA7
:1015600045F26C44C5F60204A4450BD045F2804414
:10157000C5F60204A44505D045F29444C5F602041C
:10158000A44515D1C46D806804F01F0401254028CE
:1015900005FA04F4CEF80440CCF8043004D1CCF8B9
:1015A0000820CCF80C1070BDCCF80810CCF80C203A
:1015B00070BD00000000000080B54EF6FC514FF0F9
:1015C000000CCEF200010A6842F080720A6041F21B
:1015D000000144F24022CEF20001C0F20F0250435B
:1015E00044F6D352C1F804C0C1F262020B68A0FBFA
:1015F000022E4DF6836243F001030B6040F2F021AE
:10160000C4F21B32C2F20041A0FB022308604FEA81
:101610009E104860980CC1E9020C80BD00000000DB
:10162000704700000000000040F6F4106422C2F28F
:1016300000400021026042618262C26302650122B1
:1016400080F858204FF4FA728267C0F88C2049F273
:10165000B9320172C0F60002C0E903110177C0E996
:10166000081180F83010C0E90D1180F84410C0E96D
:101670001211C0E9171180F88010C0E9211180F81B
:101680009410C0E92621704710B5044602F08CFE84
:1016900004EB840140F6F412C2F2004202EB810135
:1016A000486010BD00000000EFF3108072B600BF6C
:1016B000FEE700000000000044F60400C5F602004A
:1016C000816841F0020181600168890409D40168E0
:1016D00089045CBF01685FEA814102D40168890422
:1016E000F2D570470000000040F6DC50C2F2004026
:1016F00002F016B80000000040F6DC50C2F20040D4
:1017000002F00EB80000000040F67C60C2F200401B
:1017100002F006B80000000040F67C60C2F2004013
:1017200001F0FEBF0000000040F61C70C2F2004055
:1017300001F0F6BF0000000040F61C70C2F200404D
:1017400001F0EEBF000000002DE9F041044602F078
:101750002BFE1CB3054694F83500022822D140F236
:101760000F462768C4F2020640F26F48B7426FF096
:101770000E00C4F202081DDC6F21C4F202018F4288
:101780002ADC3F21C4F202018F4241DC1021C4F265
:1017900002018F4263D028215CE000BF0120BDE838
:1017A000F08100BF802060650120002184F83410A2
:1017B000BDE8F08147451BDC40F23F41C4F2020125
:1017C0008F422DDC40F21041C4F202018F4246D01C
:1017D00040F228413EE000BF9F21C4F202018F4247
:1017E00028DC7021C4F202018F4238D0882131E018
:1017F00040F29F41C4F202018F4223DC40F270416B
:10180000C4F202018F422AD040F2884122E000BF98
:101810004021C4F202018F4221D058211AE000BFBA
:1018200040F24041C4F202018F4218D040F25841C8
:1018300010E000BFA021C4F202018F420FD0B821F6
:1018400008E000BF40F2B841C4F202018F4206D066
:1018500040F2A041C4F202018F42394607D1394615
:10186000386820F01E0041F8140B6FF080000A6801
:10187000474500EA020008601ADC9F20C4F202001B
:10188000874233DC5720C4F2020087425ADC102022
:10189000C4F20200874200F097802820C4F20200C0
:1018A000874200F091804020C4F202008AE000BF2D
:1018B00045F22F40C5F6020087422DDC40F2B740CA
:1018C000C4F2020087424BDC40F27040C4F20200D6
:1018D000874279D040F28840C4F20200874273D038
:1018E00040F2A040C4F202006CE000BF40F227408A
:1018F000C4F20200874243DCA020C4F20200874207
:1019000062D0B820C4F2020087425DD040F210409D
:10191000C4F2020056E000BF45F26B40C5F602007B
:1019200087423FDC45F23040C5F6020087424BD08B
:1019300045F24440C5F60200874245D045F2584082
:101940003EE000BF5820C4F2020087423CD0702025
:10195000C4F20200874237D08820C4F2020031E08E
:1019600040F2B840C4F2020087422DD045F2084050
:10197000C5F60200874227D045F21C4020E000BF98
:1019800040F22840C4F2020087421DD040F240409D
:10199000C4F20200874217D040F25840C4F202005D
:1019A00010E000BF45F26C40C5F6020087420BD044
:1019B00045F29440C5F60200874205D045F28040CA
:1019C000C5F60200874204D1206E016821F48071BF
:1019D0000160386820F00100386000BF3868C00737
:1019E00010D002F0E1FC401B0628F7D320206065F0
:1019F000032084F835000120002184F83410BDE86C
:101A0000F08100BF2068B04210DC6F21C4F20201F7
:101A100088421DDC3F21C4F20201884234DC1021DF
:101A2000C4F20201884255D028214FE040451BDC1A
:101A300040F23F41C4F2020188422DDC40F21041E5
:101A4000C4F20201884245D040F228413EE000BF86
:101A50009F21C4F20201884228DC7021C4F20201F5
:101A6000884237D0882131E040F29F41C4F2020120
:101A7000884223DC40F27041C4F20201884229D03E
:101A800040F2884122E000BF4021C4F202018842B6
:101A900020D058211AE000BF40F24041C4F20201B8
:101AA000884217D040F2584110E000BFA021C4F294
:101AB000020188420ED0B82108E000BF40F2B841D0
:101AC000C4F20201884205D040F2A041C4F20201F2
:101AD00088425BD1D4E9161202F01F023F2303FAB9
:101AE00002F28A6040455BDC9F21C4F20201884219
:101AF00014DC5721C4F20201884227DC1021C4F211
:101B00000201884200F0A2802821C4F2020188422A
:101B100000F09C804021C4F2020195E040F2274190
:101B2000C4F2020188421FDCA021C4F202018842F3
:101B300000F08C80B821C4F20201884200F0868057
:101B400040F21041C4F202017EE000BF5821C4F20D
:101B5000020188427AD07021C4F20201884275D015
:101B60008821C4F202016FE040F22841C4F2020170
:101B700088426BD040F24041C4F20201884265D0F5
:101B800040F25841C4F202015EE000BFD4E91612EF
:101B900002F01F02012303FA02F24A604045A3DD6E
:101BA00045F22F41C5F60201884217DC40F2B741E9
:101BB000C4F20201884227DC40F27041C4F2020103
:101BC000884243D040F28841C4F2020188423DD0AD
:101BD00040F2A041C4F2020136E000BF45F26B4181
:101BE000C5F6020188421FDC45F23041C5F602010C
:101BF00088422BD045F24441C5F60201884225D0E7
:101C000045F258411EE000BF40F2B841C4F2020163
:101C100088421BD045F20841C5F60201884215D022
:101C200045F21C410EE000BF45F26C41C5F60201D1
:101C300088420BD045F29441C5F60201884205D096
:101C400045F28041C5F6020188420BD1616EA26E59
:101C5000E06E4A6030B1016821F480710160D4E91E
:101C60001C014160012084F835000020002184F827
:101C70003410BDE8F081000080B5D8B190F835107F
:101C8000022919D140F20F420168C4F202029142C6
:101C900016DC6F23C4F20203994227DC3F23C4F20F
:101CA000020399423EDC1023C4F2020399425FD042
:101CB000282359E0012080BD80214165012080BD9D
:101CC00040F26F43C4F2020399421BDC40F23F43EF
:101CD000C4F2020399422DDC40F21043C4F2020325
:101CE000994245D040F228433EE000BF9F23C4F212
:101CF0000203994228DC7023C4F20203994237D0D0
:101D0000882331E040F29F43C4F20203994223DC6E
:101D100040F27043C4F20203994229D040F2884352
:101D200022E000BF4023C4F20203994220D058238E
:101D30001AE000BF40F24043C4F20203994217D0B8
:101D400040F2584310E000BFA023C4F202039942BE
:101D50000ED0B82308E000BF40F2B843C4F202033B
:101D6000994205D040F2A043C4F20203994275D1D2
:101D700091424FF0040280F8352011DC6F20C4F24C
:101D80000200814222DC3F20C4F20200814239DCA1
:101D90001020C4F20200814259D0282054E000BF34
:101DA00040F26F40C4F2020081421BDC40F23F402F
:101DB000C4F2020081422DDC40F21040C4F2020065
:101DC000814244D040F228403EE000BF9F20C4F250
:101DD0000200814228DC7020C4F20200814236D029
:101DE000882031E040F29F40C4F20200814223DCAF
:101DF00040F27040C4F20200814228D040F2884094
:101E000022E000BF4020C4F2020081421FD05820CF
:101E10001AE000BF40F24040C4F20200814216D0F6
:101E200040F2584010E000BFA020C4F202008142FE
:101E30000DD0B82008E000BF40F2B840C4F2020064
:101E4000814204D040F2A040C4F2020081420868FE
:101E500020F001000860002080BD00BF0A6822F069
:101E60000E020A6045F25742C5F6020291420A6824
:101E700022F001020A600FDC45F22F42C5F6020291
:101E8000914219DC45F20842C5F60202914229D07E
:101E900045F21C4222E000BF45F27F42C5F6020235
:101EA000914213DC45F25842C5F60202914219D024
:101EB00045F26C4212E000BF45F23042C5F6020224
:101EC00091420FD045F2444208E000BF45F29442EF
:101ED000C5F60202914205D045F28042C5F60202E3
:101EE00091421AD1D0E9181CD0E916E30A6822F40D
:101EF00080720A6003F01F01012202FA01F1CEF89C
:101F00000410816ECCF80410C16E31B10A6822F45D
:101F100080720A60D0E91C124A60012180F83510F5
:101F2000026D002180F834100AB190470021084664
:101F300080BD0000000000002DE9F04782B00021C4
:101F4000019140F2A8010446C2F2004148F2B512E4
:101F5000C1F64E32A56D096840F26F490068C4F2BF
:101F60000209A1FB021848452E68296816DC9F214A
:101F7000C4F2020188422DDC5721C4F202018842DA
:101F800052DC1021C4F2020188427CD02821C4F224
:101F90000201884277D0402170E000BF45F22F4215
:101FA000C5F60202904229DC40F2B742C4F20202B6
:101FB000904245DC40F27041C4F20201884262D096
:101FC00040F28841C4F2020188425CD040F2A04154
:101FD00054E000BF40F22741C4F2020188423FDCD6
:101FE000A021C4F2020188424DD0B821C4F20201FE
:101FF000884248D040F2104140E000BF45F26B42B9
:10200000C5F60202904275DC45F23042C5F6020286
:10201000904200F0828045F24442C5F602029042AE
:102020007BD045F2584273E05821C4F20201884245
:1020300029D07021C4F20201884224D088211DE0F9
:1020400040F2B842C4F2020290421CD045F208426B
:10205000C5F60202904260D045F21C4258E000BF33
:1020600040F22841C4F2020188420CD040F24041C3
:10207000C4F20201884206D040F25841C4F2020183
:10208000884240F05A83E16D082201F01F0140F2BE
:102090000F4A8A40C4F2020A324200F0E6805045FC
:1020A0004FF0040312DC6F27C4F20207B8426FDC62
:1020B0003F27C4F20207B84200F3A4801027C4F2FD
:1020C0000207B84200F0C5802827BDE048456BDC18
:1020D00040F23F47C4F20207B84200F39B8040F24F
:1020E0001047C4F20207B84200F0B38040F228471C
:1020F000AAE000BF45F26C42C5F6020290420CD045
:1021000045F28042C5F60202904206D045F2944262
:10211000C5F60202904240F010830268E36D03F0BE
:102120001F0304279F400F4218BF12F0040621D15D
:1021300002279F400F4218BF12F002064CD1D9402F
:10214000090740F1FA8212F0080100F0F6820168F6
:1021500021F00E010160012000FA03F16960606561
:1021600084F835000020E16C84F83400002940F048
:10217000DC82E2E211046F6026D4910603D4016888
:1021800021F004010160216C002940F0CE82D4E2EC
:102190009F27C4F20207B84246DC7027C4F2020748
:1021A000B84256D088274FE040F29F47C4F202075A
:1021B000B84241DC40F27047C4F20207B84248D04E
:1021C00040F2884740E000BFD00300F1B382A16C29
:1021D000002940F0AA82B0E211046F6000F1B082E1
:1021E000910609D4016821F00A010160012084F8F8
:1021F0003500002084F83400E16B002940F095821E
:102200009BE200BF4027C4F20207B84221D0582702
:102210001AE000BF40F24047C4F20207B84218D0AB
:1022200040F2584710E000BFA027C4F20207B842AE
:102230000FD0B82708E000BF40F2A047C4F2020761
:10224000B84206D040F2B847C4F20207B84218BFFD
:10225000082307681F4208D0036823F004030360C3
:10226000AA60626D42F00102626501228A40324238
:102270006FD0504510DC6F23C4F2020398421DDC7E
:102280003F23C4F20203984234DC1023C4F2020359
:10229000984256D028234FE048451BDC40F23F438C
:1022A000C4F2020398422DDC40F21043C4F2020350
:1022B000984246D040F228433EE000BF9F23C4F23C
:1022C0000203984228DC7023C4F20203984238D0FB
:1022D000882331E040F29F43C4F20203984223DC9A
:1022E00040F27043C4F2020398422AD040F288437D
:1022F00022E000BF4023C4F20203984221D05823B9
:102300001AE000BF40F24043C4F20203984218D0E2
:1023100040F2584310E000BFA023C4F202039842E9
:102320000FD0B82308E000BF40F2A043C4F202037C
:10233000984206D040F2B843C4F20203984240F0FB
:10234000058243691B0604D5AA60626D42F0020251
:10235000626504228A4032426FD0504510DC6F2300
:10236000C4F2020398421DDC3F23C4F202039842E8
:1023700034DC1023C4F20203984256D028234FE0E5
:1023800048451BDC40F23F43C4F2020398422DDC77
:1023900040F21043C4F20203984246D040F2284370
:1023A0003EE000BF9F23C4F20203984228DC702362
:1023B000C4F20203984238D0882331E040F29F43B0
:1023C000C4F20203984223DC40F27043C4F20203D9
:1023D00098422AD040F2884322E000BF4023C4F252
:1023E0000203984221D058231AE000BF40F2404334
:1023F000C4F20203984218D040F2584310E000BFE4
:10240000A023C4F2020398420FD0B82308E000BF13
:1024100040F2A043C4F20203984206D040F2B8430F
:10242000C4F20203984240F0998103689B0704D5E7
:10243000AA60626D42F004026265102202FA01F1A4
:10244000314200F0818050454FF0080210DC6F23CC
:10245000C4F2020398421DDC3F23C4F202039842F7
:1024600034DC1023C4F20203984256D028234FE0F4
:1024700048451BDC40F23F43C4F2020398422DDC86
:1024800040F21043C4F20203984246D040F228437F
:102490003EE000BF9F23C4F20203984228DC702371
:1024A000C4F20203984238D0882331E040F29F43BF
:1024B000C4F20203984223DC40F27043C4F20203E8
:1024C00098422AD040F2884322E000BF4023C4F261
:1024D0000203984221D058231AE000BF40F2404343
:1024E000C4F20203984218D040F2584310E000BFF3
:1024F000A023C4F2020398420FD0B82308E000BF23
:1025000040F2A043C4F20203984206D040F2B8431E
:10251000C4F20203984218BF04220368134213D086
:10252000A96001684903016808D4C90508D4016895
:1025300021F008010160216C21B905E008034FD4A6
:10254000216C09B120468847E06D00F01F01202072
:1025500000FA01F2324200F0AB80206810235045AF
:1025600010DC6F27C4F20207B8421DDC3F27C4F21B
:102570000207B84238DC1027C4F20207B8425AD02A
:10258000282753E048451BDC40F23F47C4F20207CE
:10259000B84231DC40F21047C4F20207B8424AD0D8
:1025A00040F2284742E000BF9F27C4F20207B8422A
:1025B0002CDC7027C4F20207B8423CD0882735E0F3
:1025C00040F29F47C4F20207B84227DC40F270474E
:1025D000C4F20207B8422ED040F2884726E000BF7E
:1025E000A16C0029AED1AFE74027C4F20207B84280
:1025F00021D058271AE000BF40F24047C4F202073A
:10260000B84218D040F2584710E000BFA027C4F2EB
:102610000207B8420FD0B82708E000BF40F2A04739
:10262000C4F20207B84206D040F2B847C4F202072B
:10263000B84218BF022307681F4239D0AA6094F835
:102640003520042A02681BD122F01602026042697A
:1026500022F080024261226C0AB9A26C1AB10268AF
:1026600022F0080202603F208840A860012084F820
:102670003500216D0020002984F8340055D15CE03C
:10268000510301680CD4C9050ED4016821F0100172
:102690000160012084F83500002084F8340003E054
:1026A000080301D4616C00E0E16B09B12046884762
:1026B000606D002841D0606DC00734D0042084F8DC
:1026C000350020684FEA9821026822F0010202607A
:1026D000019A013201928A421AD80268D20717D0B1
:1026E000019A013201928A4212D80268D2070FD0B1
:1026F000019A013201928A420AD80268D20707D0B1
:10270000019A013201928A4202D80268D207DFD1CF
:102710000068C0074FF0030008BF012084F83500AF
:10272000002084F83400E16C39B1204602B0BDE8E5
:10273000F0470847216C0029F7D102B0BDE8F087C7
:10274000D0030DD4616C0029EFD1F6E702680422B2
:102750008A4032427FF401AE6FE600BF02686CE649
:10276000E16B0029E1D1E8E72DE9F04381B00446AF
:1027700001F01AFE002C00F0AF8040F26F480546D1
:102780002068C4F20208404516DC9F21C4F2020111
:1027900088422DDC5721C4F20201884254DC10210A
:1027A000C4F20201884200F07E802821C4F20201B6
:1027B000884278D0402171E045F22F41C5F60201F0
:1027C000884229DC40F2B741C4F20201884247DC6A
:1027D00040F27041C4F20201884264D040F2884164
:1027E000C4F2020188425ED040F2A04156E000BF30
:1027F00040F22741C4F20201884241DCA021C4F228
:10280000020188424FD0B821C4F2020188424AD066
:1028100040F2104142E000BF45F26B41C5F60201B3
:10282000884200F3BD8045F23041C5F6020188427E
:1028300000F0C98045F24441C5F60201884200F02B
:10284000C28045F25841B9E05821C4F202018842E1
:1028500029D07021C4F20201884224D088211DE0D1
:1028600040F2B841C4F2020188421CD045F208414E
:10287000C5F60201884200F0A68045F21C419DE0A9
:1028800040F22841C4F2020188420CD040F240419B
:10289000C4F20201884206D040F25841C4F202015B
:1028A000884240F02581022184F83510002184F807
:1028B0003410016821F00101016000BF2068016847
:1028C000C9070DD001F070FD401B0628F6D320206B
:1028D0006065032084F83500012001B0BDE8F08375
:1028E00048F23F0204F108060168CFF61062114079
:1028F000D4F818C06CCE1143D4F824901943E3697E
:102900002943256A0E43B9F1040F43EA060343EA5B
:10291000050343EA0C0303D1D4E90B652E4333438B
:10292000666843F48011A6F13F07A6F12905042F3C
:10293000A6F1470238BF0B46062DA6F14F0E38BF51
:102940000B46022A26F0030238BF0B46BEF1040FE5
:1029500038BF0B46742A08BF0B46B9F1040F036059
:10296000416921F0070141EA090140F0DD80D4E925
:102970000A53002B41EA050100F0D680BCF5005F48
:1029800000F0B880BCF1000F40F0C080022D00F0D4
:10299000C080012D00F0B480002D00F0BA80C3E0AB
:1029A00045F26C41C5F6020188420CD045F28041E7
:1029B000C5F60201884206D045F29441C5F60201EF
:1029C000884240F0958004F1080E022184F8351009
:1029D000002184F834100168A3699EE80450A2F134
:1029E0008005E769B5FA85F566696D09402A4FEA01
:1029F000853543EA07026FF3101142EA060208BF69
:102A0000102541EADC0142EA0E02236A294341EA29
:102A1000D20141EA131140F80819C0B2CD21484350
:102A20003C2101EA9020E0652046FEF7A5FBE16D20
:102A3000012201F01F0102FA01F1416020684045C6
:102A400000F381809F21C4F20201884214DC5721E7
:102A5000C4F20201884227DC1021C4F2020188423C
:102A600000F0C7802821C4F20201884200F0C18032
:102A70004021C4F20201B9E040F22741C4F2020150
:102A8000884221DCA021C4F20201884200F0B1801A
:102A9000B821C4F20201884200F0AB8040F210413C
:102AA000C4F20201A2E000BF5821C4F20201884230
:102AB00000F09F807021C4F20201884200F09980EA
:102AC0008821C4F2020191E040F22841C4F20201DF
:102AD000884200F08E8040F24041C4F202018842F8
:102AE00000F0878040F25841C4F202017EE000BF4E
:102AF0004020EDE6032D17D8DFE805F00E0B0E029F
:102B0000A3F1C072B2FA82F2520904E0032D03D39A
:102B10000AD1C3F300623AB140206065012084F815
:102B2000350001B0BDE8F08341612046FEF724FB8B
:102B3000E16D3F2201F01F0102FA01F1816020687E
:102B400040457FF77FAF45F22F41C5F6020188422D
:102B500016DC40F2B741C4F20201884226DC40F2A2
:102B60007041C4F20201884243D040F28841C4F26D
:102B7000020188423DD040F2A041C4F2020135E09A
:102B800045F26B41C5F6020188421FDC45F2304137
:102B9000C5F6020188422CD045F24441C5F6020137
:102BA000884226D045F258411EE000BF40F2B841AD
:102BB000C4F2020188421CD045F20841C5F6020168
:102BC000884216D045F21C410EE000BF45F26C4130
:102BD000C5F6020188420CD045F29441C5F60201C7
:102BE000884206D045F28041C5F60201884240F095
:102BF000E18045F2574C45F6FC01C5F6020CC5F6DE
:102C0000020160450EDC45F22F42C5F602029042F9
:102C100018DC45F20842C5F60202904228D045F27F
:102C20001C4221E045F27F42C5F60202904213DCCD
:102C300045F25842C5F60202904219D045F26C4264
:102C400012E000BF45F23042C5F6020290420FD0BA
:102C500045F2444208E000BF45F29442C5F6020244
:102C6000904205D045F28042C5F60202904247D11B
:102C700000F0FC024CF6CD43083ACCF6CC43A2FB64
:102C80000323A1F1FC05A1F17C061B0905EB8305DB
:102C900003F01F02A3682566802B4FF0010303FA9F
:102CA00002F26666A26605D100206060286072604C
:102CB0001EE000BF6768FBB2013F072F2B60726008
:102CC00016D85E1E082E19D2604501F1440237DC89
:102CD00045F22F47C5F60207B84241DC45F20847E6
:102CE000C5F60207B84259D045F21C474AE000BF7A
:102CF00000206067C4E91B005CE000BFE06E54E0A8
:102D000000F0F8024AF6AB23103ACAF6AA23A2FB57
:102D1000032740F20F43C4F2020308253A09984200
:102D200003F1AA06134688BF05EB171340F600050A
:102D3000B042C4F2020505F1800628BF1346A5E79C
:102D400045F27F47C5F60207B84213DC45F2584703
:102D5000C5F60207B84221D045F26C4712E000BF29
:102D600045F23047C5F60207B84217D045F244474E
:102D700008E000BF45F28047C5F60207B8420DD013
:102D800045F29447C5F60207B84207D040F6000066
:102D9000C4F2020000F1FC0100F5A07201EB830017
:102DA0000121E066B1402267616700210160D4E93A
:102DB0001C01416000206065012184F8351001B0DC
:102DC000BDE8F08300000000B0B500283CD0054607
:102DD00090F83400012801D10220B0BD012085F80F
:102DE000340095F83500012828D1022085F83500F7
:102DF000002068652868046824F0010404602846FF
:102E0000FEF74EFA40F20F422868C4F2020240F286
:102E10006F419042C4F2020118DC6F23C4F2020336
:102E2000984225DC3F23C4F2020398423CDC102385
:102E3000C4F2020398425ED0282357E04FF40060AA
:102E40006865002085F834000120B0BD88421BDC95
:102E500040F23F43C4F2020398422DDC40F210439B
:102E6000C4F20203984246D040F228433EE000BF3D
:102E70009F23C4F20203984228DC7023C4F20203A9
:102E8000984238D0882331E040F29F43C4F20203D5
:102E9000984223DC40F27043C4F2020398422AD0E5
:102EA00040F2884322E000BF4023C4F2020398426C
:102EB00021D058231AE000BF40F24043C4F202037D
:102EC000984218D040F2584310E000BFA023C4F24B
:102ED000020398420FD0B82308E000BF40F2B84385
:102EE000C4F20203984206D040F2A043C4F20203A7
:102EF000984240F02F8103680B2464F3440303607D
:102F00002B6C1BB10823046823430360884219DC3F
:102F10009F23C4F20203984232DC5723C4F2020317
:102F2000984259DC1023C4F20203984200F09680C4
:102F30002823C4F20203984200F090804023C4F298
:102F4000020389E045F22F43C5F6020398422DDCC7
:102F500040F2B743C4F2020398424BDC40F27043A4
:102F6000C4F20203984279D040F28843C4F20203CB
:102F7000984273D040F2A043C4F202036CE000BF59
:102F800040F22743C4F20203984243DCA023C4F278
:102F90000203984262D0B823C4F2020398425DD083
:102FA00040F21043C4F2020356E000BF45F26B4307
:102FB000C5F6020398423FDC45F23043C5F60203F2
:102FC00098424BD045F24443C5F60203984245D09F
:102FD00045F258433EE000BF5823C4F20203984232
:102FE0003CD07023C4F20203984237D08823C4F245
:102FF000020331E040F2B843C4F2020398422DD0FC
:1030000045F20843C5F60203984227D045F21C4317
:1030100020E000BF40F22843C4F2020398421DD0D2
:1030200040F24043C4F20203984217D040F25843A2
:10303000C4F2020310E000BF45F26C43C5F6020380
:1030400098420BD045F29443C5F60203984205D04E
:1030500045F28043C5F60203984274D12B6E1C687A
:10306000E40303D51C6844F480741C60EB6E1BB150
:103070001D6845F480751D60904211DC6F21C4F21B
:10308000020188421EDC3F21C4F20201884235DC85
:103090001021C4F20201884255D0282150E000BF1F
:1030A00088421BDC40F23F41C4F2020188422DDC21
:1030B00040F21041C4F20201884244D040F228415B
:1030C0003EE000BF9F21C4F20201884228DC70214B
:1030D000C4F20201884236D0882131E040F29F419B
:1030E000C4F20201884223DC40F27041C4F20201C2
:1030F000884228D040F2884122E000BF4021C4F23B
:10310000020188421FD058211AE000BF40F240411E
:10311000C4F20201884216D040F2584110E000BFCC
:10312000A021C4F2020188420DD0B82108E000BFFE
:1031300040F2B841C4F20201884204D040F2A041FA
:10314000C4F202018842016841F0010101600020DF
:10315000B0BD00BF0368052464F3430303602B6C18
:10316000002B3FF4D3AE0423CDE6000000000000A6
:10317000B0B5044601F018F940F2A0010546C2F2CC
:103180000041621C097818BF0C4400BF01F00CF923
:10319000401BA042FAD3B0BD90F89830013B012B00
:1031A0000ED80068836D0B4212D0836D0B408B42AA
:1031B00016D1C36D43F00203C3658B0514D418E028
:1031C00000F19C01012002220B681A430A6070473B
:1031D000C36D43F00103C3658B0505D409E000BF4F
:1031E0000323C3658B0504D5D0F8E0301343C0F842
:1031F000E0304B0504D5D0F8E4301A43C0F8E420A1
:103200004FF6FF72436DC3F6CF720A401A43426510
:103210008A0F4AF614010020C4F200010B681A4319
:103220000A607047000000002DE9F04390F89830E4
:10323000022B19D10668D6F8C03013F07C5F1DD080
:10324000D6F8C4309B0223D4D6F8C4300C69C3F33B
:10325000044CD1E90035002D8D6823D023432B4346
:1032600043F0804E22E000BFD0F89C1041F00801EE
:10327000C0F89C100120BDE8F08300BFD0F89C107E
:1032800041F02001C0F89C100120BDE8F08300BF90
:10329000D0F89C1041F40071C0F89C100120BDE8EA
:1032A000F08300BF44EA834343EA050E836ED0F8FF
:1032B0008450D1E907970CFB03F48B6949EA07674F
:1032C000D1F81480D1F80C901F4305EB840347EA32
:1032D000080745F824E047EA09475F60CF6887B1EF
:1032E00040F2EC15083303320024C0F6010500BF9C
:1032F000171957F8037C1F51CF680434EF5DBC42A7
:10330000F6D3012101FA0CF1C6F8D010C0F89410E0
:103310000020BDE8F08300007047000000000000BE
:1033200090F89830012B0DD1012913D0F1B9006824
:10333000D0F8F01021F07C5141EA0261C0F8F010A1
:1033400000207047D0F89C1041F00401C0F89C1098
:10335000012070470068D0F8A01021F0FE4141EA3A
:103360000261C0F8A0100020704700BF0068D0F8CC
:10337000B01021F0FE4141EA0261C0F8B010002017
:10338000704700000000000080B590F89820013AD6
:10339000012A0BD80A68002ACA680FD00B69072ACD
:1033A00043EA427E18D18B691BE000BFD0F89C1025
:1033B00041F00201C0F89C10012080BD072A19D1FC
:1033C0000A69D1F81CC012048B6942EA0C221A4324
:1033D00042F0605218E000BFD1F808C04B6943EAE0
:1033E0008C73006F496800EBC10240F831E00020A7
:1033F000536080BD8B68D1F810C09B0743EAC2625E
:103400004B6942EA0C421A434968C06E40F82120D9
:10341000002080BD0000000090F898C0BCF1010FB2
:103420000ED19200006842EA0111DDF800C041EAC5
:10343000430141EA0C01C0F880100020704700BF32
:10344000D0F89C1041F00401C0F89C100120704796
:10345000704700000000000010B58CB040F6DC5250
:1034600001F00071C2F2004290420BD151B140F61E
:10347000DC5401A9C2F20044204600F031F806985D
:1034800018BB29E040F67C62C2F2004290420BD1A8
:1034900051B140F67C6401A9C2F20044204600F01C
:1034A0001FF8069888B917E040F61C72C2F2004275
:1034B000904211D181B140F61C7401A9C2F20044BE
:1034C000204600F00DF8069830B12068816921F09F
:1034D000010181610CB010BD0CB010BD00000000F6
:1034E0000068426C02F007000860C2F302204860E6
:1034F000C2F3803302F018008860C2F34010C86045
:10350000C2F380100861C2F3C0104861C2F3C0204A
:103510008861C2F30030C861C2F34030C1E90803DA
:10352000C2F3064200208A627047000000000000DB
:103530002DE9F04390F89870022F11D1402919D14C
:103540000668D6F8A07017F4FE0F2FD0D6F8A47036
:103550007F0635D0D6F8A470FF013BD400273CE0AD
:10356000D0F89C1041F00801C0F89C100120BDE883
:10357000F08300BF41290FD10668D6F8B07017F468
:10358000FE0F13D0D6F8B4707F0619D0D6F8B470F9
:10359000FF012BD400272CE0076D8F4206D900F1E4
:1035A0007C04456D4FF0000C0E462BE0D0F89C10CB
:1035B00041F02001C0F89C100120BDE8F08300BF5D
:1035C000D0F89C1041F48071C0F89C100120BDE837
:1035D000F08300BFD6F8A070FF0FD6F8A46000F10A
:1035E0007404C6F30526F519466C0AE0D6F8B070E7
:1035F000FF0FD6F8B46000F17804C6F30526F5197C
:10360000C66CAC467543246804EB850E54F82570EF
:1036100017F08047576054F8257027F0604608BFC0
:10362000C7F38A46166054F8257007F00057976074
:1036300054F8254004F000441461BEF80440D461FD
:10364000BEF8064014F00F04D460DEF8044004F421
:1036500080145461DEF8044004F4001494619EF870
:10366000074004F07F041462DEF804404FEAD4748B
:10367000546228D040F2EC180024C0F601080EEB8A
:103680000406651C377A1F55D76818F80770BD42C5
:1036900019D21F19757A7D70D56818F80590A51C88
:1036A0004D453FBFB57ABD70D56818F805903CBF51
:1036B000E51C4D4507D2F57A0434FD70D56818F83D
:1036C0000550AC42DBD3402906D10068C0F8A8C041
:1036D0000020BDE8F08300BF412905D10068C0F893
:1036E000B8C00020BDE8F0831F2909D80068012276
:1036F00002FA01F1C0F898100020BDE8F08300BF85
:10370000006801F01F01012202FA01F1C0F89C10CB
:103710000020BDE8F08300007047000000000000BA
:103720002DE9F04F89B004464AF61000C4F20000BB
:1037300001684AF61400C4F200000268206802EA38
:103740000108056DD0F85490036D0293436D019309
:10375000036D0493436D0393036D0893436D0793C7
:10376000036D0693436D0593D0F854A0D0F850B084
:103770005FEACA530ED51BF480710BD04FF48071F1
:1037800001654AF610010020C4F2000108602046DD
:10379000FFF7C2FF05EA09064AF610095FEA4A5038
:1037A000C4F200094FEA887711D51BF480600ED06F
:1037B0002068D0F8DC10D0F8E42011404FF480628B
:1037C00002650020C9F80000204600F0FDFCDDE99C
:1037D000011000EA010506F4704657B12068002187
:1037E000016508F00300C9F8000020463946FFF7DC
:1037F00093FDDDE9031000EA010705F00F0546B16E
:103800002068314606650020C9F80000204600F017
:10381000E3FC07F0F00645B1206829460565002065
:10382000C9F80000204600F0EFFB46B120683146A1
:1038300006650020C9F80000204600F08DFC5FEA14
:103840000A500CD51BF4006009D020684FF40061C9
:1038500001650020C9F80000204600F0C1FC5FEAC5
:103860008A5011D51BF400700ED02068D0F8D81003
:10387000D0F8E02011404FF4007202650020C9F832
:103880000000204600F0A4FC5FEA0A300CD51BF4CF
:10389000002009D020684FF4002101650020C9F8FC
:1038A0000000204600F0ACFB5FEACA300CD51BF4E8
:1038B000803009D020684FF4803101650020C9F8BC
:1038C0000000204600F07CFC5FEA4A30DDE905108C
:1038D00000EA01050CD51BF4802009D020684FF4C4
:1038E000802101650020C9F80000204600F064FC3A
:1038F0005FEA8A30DDE9071000EA010005F0607137
:103900000FD51BF400320CD022684FF4003313653E
:103910000022C9F80020D4F89C2042F08002C4F8AC
:103920009C2000F0715539B1206801650020C9F86C
:1039300000002046FFF790FD206845B10565002195
:10394000C9F80010D4F89C102943C4F89C10A9F5BC
:10395000016188420AD0D4F89C00002868D0204633
:1039600009B0BDE8F04FFFF773BD00BF6068816824
:103970008907F0D0016A426A036A476A114003EA84
:10398000070202F03005D0F82080D0F82490D0F85B
:1039900020B0D0F824A0026A089211F00F01426A08
:1039A0000792466A026A069203D00162204600F03E
:1039B000F7FB08EA09072DB1606829460562204631
:1039C00000F0F6FB70060BEA0A0607F4C0750ED588
:1039D000069810F040000AD060684023C16BC26BAB
:1039E000090C02F03F020362204600F0DDFBDDE936
:1039F000071000EA010706F4FC462DB1606829466D
:103A00000562204600F0C8FB07F4F02036B161687B
:103A10000E62D4F89C103143C4F89C1000289AD050
:103A200061680862D4F89C100843C4F89C0092E7CF
:103A300009B0BDE8F08F00002DE9F04F85B0A8B3C4
:103A40004AF200080446C4F200080068404531D03C
:103A500094F89810A9B3816921F01001816100F0F8
:103A6000A3FC054620688169090705D500F09CFC88
:103A7000401B0B28F6D310E0816941F00101816100
:103A800000F092FC054600BF20688169C90721D17A
:103A900000F08AFC401B0B28F6D30120D4F89C10C0
:103AA0000843C4F89C00032084F89800012005B066
:103AB000BDE8F08F08F58071616094F898100029D6
:103AC000C9D1002084F89900204600F0B5F920689B
:103AD000C1E700BF816941F002018161217C8269F7
:103AE00022F04002012918BF40328261617C826964
:103AF00022F48042012908BF02F580428261A17C44
:103B0000826922F48052012918BF02F58052826135
:103B1000816921F44073D4E902120B438361836904
:103B200023F0A4038361036923F0100303619AB1B6
:103B3000012A0DD0022A09D08369032A43F08003A9
:103B40008361036943F01002026105D1202200E085
:103B5000042283691A438261D4E90572E369561E1F
:103B60006FF0FF02256A02EB0323B1F5407F43EAC1
:103B70004663A5F1010646EA030640F20003CFF6CC
:103B8000FF7303EB074746EA0701C16110D1D4E98F
:103B90000B65D4E90917013F02EB06226FF00F060F
:103BA0003A4306EB05173A4303EB01411143C16069
:103BB000236E2BB1616ED0F8C0201143C0F8C01045
:103BC000E16DCDE90313D9424FF65071C0F6000103
:103BD00009D0D0F8C820A36E22F0070251F8233094
:103BE0001A43C0F8C820D4F840A0BAF1000F09D099
:103BF000D0F8BC20636C22F0070251F823301A433E
:103C0000C0F8BC20A76C57B1D0F8BC20E36C22F000
:103C1000700251F8233042EA0312C0F8BC20D4F8F5
:103C200050C0BCF1000F0AD0D0F8BC20636D22F464
:103C3000E06251F8231042EA0121C0F8BC1040456F
:103C400004D161688A6822F003028A600021C4F806
:103C50009410C4F89C10012184F898104FF6FC725F
:103C6000D0F88410D4F83C9021EA0203656CD4E9C2
:103C70000D120292019543EA8103C0F88430D0F816
:103C8000843023F47F0343EA0243C0F8843053189E
:103C9000D0F888606FF38F0646EA8306C0F8886024
:103CA000D0F8886003EB490326F4FE0646EA09468D
:103CB000C0F88860D0F8A0606FF38F0646EA8306EC
:103CC000C0F8A060D0F8A06005FB0A3326F4FE0619
:103CD00046EA0A46C0F8A060D0F8B0606FF38F06DD
:103CE00046EA8306C0F8B060D0F8B06026F4FE065D
:103CF00046EA0746C0F8B060E66CD0F8AC506FF307
:103D00008F0506FB07337E4345EA8305C0F8AC50B8
:103D1000D4F8548008FB0C35D0F8F0306FF38F03E3
:103D200008FB0CFC43EA8503C0F8F030D0F8F0E063
:103D3000A36D2EF47C1242EA0342C0F8F02005EB9A
:103D40004302D0F8C0506FF38F0545EA8202C0F8F5
:103D5000C020D0F8C020DDF80CB022F47C1242EA7A
:103D60000B42C0F8C020019AD0F8C05025F07C5515
:103D700002FB0AFE4AF20002C4F20002DDF810A0C3
:103D800002EB8101029A01F5406145EA0A6501EB07
:103D90008207C0F8C05007EBC902A56E02EB8E0087
:103DA000626700EB86060BFB05F2276706EB8C07C4
:103DB000C4E91E060AFB05F007EBC30303EB82020E
:103DC000C4F884304DF2FC33E16602EB8000C4F2AB
:103DD00000039842C4F88070C4F88820C4F89000AA
:103DE00002D920205AE600BF814221D20A46002093
:103DF00042F8040BD4F890309A4215D2486001F191
:103E00000802D4F890309A423FBF0020886001F148
:103E10000C02D4F8903038BF9A4205D2C8601031F5
:103E2000D4F890209142E1D305B0BDE8F08F00BFF7
:103E3000002005B0BDE8F08FB0B5B6B0044602A8CA
:103E4000B8210025CDE93455CDE932553195FCF73F
:103E500054FD4DF200412068C4F20001884241D077
:103E60004AF20041C4F20001884273D04AF20001D4
:103E7000C4F20001884240F0BF80002003904FF45C
:103E8000004002904FF080501D9002A800F054FDB9
:103E900008B1FDF709FC40F2444144F2E040C2F2AF
:103EA0000041C5F602000A68002A02F101020A6018
:103EB00008D1C16841F48071C160C16801F48071AA
:103EC000019101990168152441F008010160006821
:103ED000132500F00800019001980320319009217A
:103EE00033E000BF4FF4004002904FF080501D902F
:103EF00002A8039500F020FD08B1FDF7D5FB40F2C4
:103F0000444144F2E040C2F20041C5F602000A68B2
:103F1000002A02F101020A6008D1C16841F48071EF
:103F2000C160C16801F48071019101990168A02408
:103F300041F00801016000689F2500F00800019031
:103F4000052101984FF44050319040F60040C5F6ED
:103F5000020038E0002003904FF4004002904FF040
:103F600080501D9002A800F0E7FC08B1FDF79CFB13
:103F700040F2444144F2E040C2F20041C5F6020082
:103F80000A68002A02F101020A6008D1C16841F4FE
:103F90008071C160C16801F480710191019901686B
:103FA000162441F0020101600068142500F00200AF
:103FB000019001986020319040F60040C5F6020063
:103FC0000921A0F50060359131A902223292002228
:103FD000CDE9332200F008F905210022284600F03F
:103FE000FBFA284600F0E4FA05210022204600F002
:103FF000F3FA204600F0DCFA36B0B0BD0000000055
:104000007047000000000000F0B58DB040F6DC51B4
:10401000C2F2004188420DD040F67C61C2F20041FC
:10402000884219D040F61C71C2F20041884227D064
:104030000DB0F0BD40F6DC5003AAC2F2004001AB67
:104040004021FFF775FA98B340F2B860C2F2004021
:1040500041890131418173E040F67C6003AAC2F2DC
:10406000004001AB4021FFF763FA00284CD040F23A
:10407000B860C2F200408189013181814FE000BF08
:1040800040F61C7403AAC2F2004401AB4021204652
:10409000FFF74EFA002857D040F2B86040F61C7483
:1040A000C2F20040C2F20044C1890131C1814BE03B
:1040B0000398A0F20121032942D8013840F2F467A5
:1040C000C4B2C2F200476100BDF8062051FA80F088
:1040D000BDF80410BDF8083007EB80159DF90A60A3
:1040E00028460096C9BAD2BADBBAFDF705F8A87916
:1040F000A0F147011C2917D804EB440007EB8010FE
:10410000817C013118E000BF0398B0F5407F06D1F3
:1041100040F2C86001A9C2F2004007F019F940F668
:104120007C64C2F200440FE040B2312805DC04EBAD
:104130004400002107EB801081742046FDF7A4FAAB
:1041400040F6DC54C2F20044012100222046FFF771
:1041500023F80DB0F0BD0000704700000000000023
:1041600090F8981001290DD1022180F8981001686B
:104170008A6922F001028A610021C0F89C10084679
:10418000704700BFD0F89C1041F00401C0F89C10AB
:104190000120704700000000704700000000000090
:1041A00070470000000000007047000000000000A1
:1041B0007047000000000000704700000000000091
:1041C0007047000000000000704700000000000081
:1041D0007047000000000000704700000000000071
:1041E00070470000000000002DE9F04F82B00D681C
:1041F000002D00F0CB8000F1264242F2004302F194
:10420000FF72C5F602030A2698424FEAB22444F22E
:10421000F44E08BF0926082C40F2040C38BF4FEAC0
:10422000B226C5F6020EC5F6000C00960022002745
:10423000002609E001360D6835FA06F307F1040798
:1042400002F1020200F0A280012303FA06F415EA4B
:104250000408EFD0D1F804A003230AF0030B934025
:10426000ABF101056FEA0309012D0FD88368CD6812
:1042700003EA090395402B438360CAF300154368A2
:10428000A34305FA06F42343436005E0BBF1030FA3
:1042900002D14FF0030B21E0C3688C6803EA0903E5
:1042A0009440BBF1020F43EA0403C36016D16FF0E0
:1042B000030307F01C0503EA56030F24034404FA22
:1042C00005FBD3F820A00C692AEA0B0AAC4044EAAB
:1042D0000A041C62D1F804A00AF0030B03680BFA6D
:1042E00002F403EA09031AF4403F43EA04030360BB
:1042F000A0D0DEF8003040F2084A43F00203CEF8C6
:104300000030DEF80030C5F6000A03F00203019326
:1043100026F00303019C07F00C040F2553F80A90C4
:10432000A54029EA0509009D05FA04F444EA0904B8
:1043300043F80A404FF0B04ADAF800904C6849EA76
:104340000805E30258BF29EA0805A302CAF800508D
:10435000DCF8009049EA080558BF29EA0805A303DC
:10436000CCF80050DCF8809049EA080558BF29EAEB
:104370000805E403CCF88050DCF87C3043EA0805FB
:1043800058BF23EA0805CCF87C5053E702B0BDE8DB
:10439000F08F000000000000002A08BF09048161BE
:1043A00070470000000000004AF21020C2F20140F5
:1043B000006870470000000040F2A0004AF210219F
:1043C000C2F20040C2F2014100780A68104408605D
:1043D000704700000000000080B5032000F02CF9B9
:1043E00001F0E6F944F2184140F23413C5F6020137
:1043F000C0F601030A68096801F00F01C2F3032245
:10440000595C9A5C01F01F0102F01F02D04040F29B
:10441000AC02C2F2004220FA01F1116040F2A801A0
:10442000C2F2004108600F2000F00AF800281CBF0B
:10443000012080BD00F0A4F8002080BD0000000035
:10444000B0B58AB00F2840D804461C20002221466F
:10445000002500F0C1F81C2000F0AAF840F2A400EA
:10446000C2F20040046044F2E840C5F60200016870
:1044700041F001010160006801A900F00100029013
:10448000029802A801F0E0F8079C002C18BF012454
:1044900001F02EF94DF68361A040C4F21B314FF0BC
:1044A000FF32A0FB010141F29000C2F200404FF048
:1044B0008043036002EB9141C0E9011540F2E7310E
:1044C000C0E9031502F01CFA10B101200AB0B0BD1A
:1044D00041F29000C2F2004002F082FA0AB0B0BD90
:1044E00010B54EF6A05E4178CEF2000E90F800C0F6
:1044F0004EF8081CDEF8001021F00101CEF8001083
:1045000041684EF8041C017BC37A827A447B1B0607
:1045100043EA0171837B41EAC241C27B41EA8441A3
:10452000447A41EA4341007A41EA024141EA0421E6
:1045300041EA400040EA0C00CEF8000010BD000047
:104540004EF62450CEF20000BFF35F8F016821F4D5
:104550008031016000210167704700000000000009
:104560004EF6245140F00100CEF2000108670868C1
:1045700040F480300860BFF34F8FBFF36F8F7047F8
:1045800081B044F2F4400022C5F60200016841F017
:104590000201016000680F2100F0020000906FF03E
:1045A0000100009B01B000F017B8000000000000FF
:1045B000002848BF704781B200F01F00012249095E
:1045C00002FA00F04EF20012CEF2000242F8210090
:1045D000704700000000000070B54EF60C5C4FF014
:1045E000FF36CEF2000C00F1604505F56445DCF8BD
:1045F0000030C3F3022E8EF00703042B28BF0423E0
:10460000BEF1030406FA03F321EA030100F00F03ED
:1046100038BF0024043B0028634406FA04F048BF76
:1046200003F10C05A14022EA0000084300012870B4
:1046300070BD0000000000004EF60C514FF6FF0365
:10464000CEF200010A681A4060F30A2242F080604C
:1046500040F0FD700860704708F0FAFF00000000AD
:10466000B0B544F60C05C5F6020529684907296866
:1046700006D401F00701081A18BF0120B0BD00BF21
:1046800021F0070108432860FFF78EFE044600BFB3
:1046900055F8080C800407D4FFF786FE001BB0F520
:1046A0007A7FF5D90120B0BD0020B0BD0000000028
:1046B00080B500F0F5FF44F2204140F23412C5F617
:1046C0000201C0F601020968C1F30211515C01F058
:1046D0001F01C84080BD000080B544F2384EC5F6C9
:1046E000020E5EF8103C5EF8101C5EF80C2CC1F354
:1046F000053CDEF80410BCF1000F15D0C908D20645
:1047000001EAE2716FF35F3100EE101A03F003016A
:104710000229B8EE400A0DD081B95EF8381C89062E
:1047200010D49FED361A1BE000218160C0E9001112
:1047300080BD00BF9FED301A12E000BF9FED2D1A23
:104740000EE000BF5EF8381C49F20002C0F2D03221
:10475000C1F3C10122FA01F101EE101AB8EE411ABB
:10476000DEF800109FED263A6FF35F2102EE101A7B
:10477000DEF80010C1F34621B8EE422A00EE032A0B
:1047800000EE10CAB7EE003AB8EE400A81EE000A19
:1047900032EE031A02EE101AB8EE422A20EE010A97
:1047A00032EE031A80EE011ABCEEC11A80ED001A37
:1047B000DEF80010C1F3064101EE101AB8EE411AFE
:1047C00031EE031A80EE011ABCEEC11A80ED011A17
:1047D000DEF80010C1F3066101EE101AB8EE411ABE
:1047E00031EE031A80EE010ABCEEC00A10EE101A78
:1047F000816080BD0024744A001BB74B0024744CB8
:10480000000000390000000080B544F2404EC5F6BB
:10481000020E5EF8183C5EF8181C5EF8142CC1F30A
:10482000055CDEF80410BCF1000F15D0C908D205F4
:1048300001EAE2716FF35F3100EE101A03F0030139
:104840000229B8EE400A0DD081B95EF8401C8906F5
:1048500010D49FED361A1BE000218160C0E90011E1
:1048600080BD00BF9FED301A12E000BF9FED2D1AF2
:104870000EE000BF5EF8401C49F20002C0F2D032E8
:10488000C1F3C10122FA01F101EE101AB8EE411A8A
:10489000DEF800109FED263A6FF35F2102EE101A4A
:1048A000DEF80010C1F34621B8EE422A00EE032ADA
:1048B00000EE10CAB7EE003AB8EE400A81EE000AE8
:1048C00032EE031A02EE101AB8EE422A20EE010A66
:1048D00032EE031A80EE011ABCEEC11A80ED001A06
:1048E000DEF80010C1F3064101EE101AB8EE411ACD
:1048F00031EE031A80EE011ABCEEC11A80ED011AE6
:10490000DEF80010C1F3066101EE101AB8EE411A8C
:1049100031EE031A80EE010ABCEEC00A10EE101A46
:10492000816080BD0024744A001BB74B0024744C86
:1049300000000039000000002DE9F0470446C0786F
:1049400044F22C480007C5F6020833D5606E4FEAE2
:10495000305103290CD8DFE801F003111D2600BFF8
:10496000D8F8001041F40031C8F800101BE000BF77
:1049700001266078C0070BD020E000BF04F10800DA
:10498000022106F025FB064660B16078C00715D10C
:10499000354646E004F12800022106F0ADFB06464C
:1049A0000028F2D1606ED8F8241021F44011084399
:1049B000C8F8240000266078C007E9D0A06D04285C
:1049C0000ED83546DFE800F00412181E1E0000BFA6
:1049D000D8F80000354640F40030C8F8000011E077
:1049E00001250127607840071FD453E004F1080037
:1049F000002106F0EDFA04E004F12800002106F0A1
:104A00007BFB05462F461DB1607840070DD441E081
:104A1000D8F82400A16D20F0070000250843C8F84D
:104A2000240037466078400734D5D4F8A4004FEA14
:104A3000705005280CD8DFE800F00311171D1D1D6C
:104A4000D8F8000040F40030C8F8000012E000BFC1
:104A5000012501266078000720D455E004F1080004
:104A6000002106F0B5FA04E004F12800002106F068
:104A700043FB05462E461DB1607800070ED443E087
:104A8000D8F82C00D4F8A41020F4600000250843C6
:104A9000C8F82C003E466078000735D5D4F8A80049
:104AA0004FEA306005280DD8DFE800F00412181E28
:104AB0001E1E00BFD8F8000040F40030C8F8000007
:104AC00012E000BF01250127E078800720D44EE0E6
:104AD00004F10800002106F07BFA04E004F128004C
:104AE000002106F009FB05462F461DB1E07880073E
:104AF0000ED43CE0D8F82C00D4F8A81020F0E060E8
:104B000000250843C8F82C003746E07880072ED5EA
:104B1000E06C4FEA301003280ED8DFE800F00903FC
:104B2000130900BFD8F8000040F40030C8F80000B6
:104B30002E467DB912E000BF012501266078C0062F
:104B400019D44CE004F10800022106F041FA0546B0
:104B50002E461DB16078C0060DD440E0D8F8200084
:104B6000E16C20F0300000250843C8F820003E46E4
:104B70006078C00633D5E06D4FEA303004280DD898
:104B8000DFE800F00412181E1E0000BFD8F8000075
:104B900040F40030C8F8000012E000BF01250127F2
:104BA000607880061FD44EE004F10800002106F072
:104BB0000FFA04E004F12800002106F09DFA0546F2
:104BC0002F461DB1607880060DD43CE0D8F8240053
:104BD000E16D20F4E04000250843C8F82400374682
:104BE000607880062FD5206E4FEA3040052809D81E
:104BF000DFE800F0040E1404040400BF2E46ADB933
:104C000018E000BF01250126607840061FD44FE060
:104C100004F10800012106F0DBF904E004F12800AA
:104C2000012106F069FA05462E461DB1607840065E
:104C30000DD43DE0D8F82400216E20F4E0200025BA
:104C40000843C8F824003E466078400630D5D4F8C2
:104C5000AC004FEA3070052808D8DFE800F0030DFB
:104C6000130303032F46ADB918E000BF0125012748
:104C70006078000620D442E004F10800012106F02B
:104C8000A7F904E004F12800012106F035FA0546F1
:104C90002F461DB1607800060ED430E0D8F82C0005
:104CA000D4F8AC1020F0E04000250843C8F82C00F0
:104CB00037466078000622D5E06E58B1B0F1005F4B
:104CC0000CD0B0F1805F2FD1D8F8000040F4003054
:104CD000C8F800002E469DB908E000BF04F10800A6
:104CE000012106F075F905462E464DB9D8F8240085
:104CF000E16E20F0405000250843C8F824003E46ED
:104D0000E078C00733D0A06C032813D8DFE800F0A8
:104D100008021A08D8F8000040F40030C8F8000073
:104D2000A946BDB91AE000BF01250126E078C007F9
:104D3000E9D11CE001254FF00109A07840061AD501
:104D40001CE000BF04F10800022106F041F905460D
:104D5000A9461DB1A07840060DD50FE0D8F8200077
:104D6000A16C20F0030000250843C8F82000B146DC
:104D7000A078400602D44F4618E000BFD8F8D4030C
:104D800040F48070C8F8D403FFF70EFB064600BF5E
:104D9000D8F8D403C00507D4FFF706FB801B6428AE
:104DA000F6D90325032701E02F468DB12078C007EF
:104DB00061D0A06F4FEAF00005283BD8DFE800F093
:104DC00004404604040400BF002D2E4646D149E0AD
:104DD000D8F84410D4F8B000414011F4407F11D00D
:104DE000D8F84410D8F8442042F48032C8F844205F
:104DF000D8F8442021F4407122F48032C8F84420CD
:104E0000C8F84410B0F5807F40F0CE82FFF7CCFAAE
:104E1000064641F2883A0325032700BFD8F844002C
:104E2000800700F1BF82FFF7BFFA801B5045F5D91C
:104E3000BCE700BF01250126207880071FD44CE085
:104E400004F10800012106F0C3F804E004F1280091
:104E5000012106F051F905462E461DB12078800744
:104E60000DD43AE0D8F82800A16F20F038000025D2
:104E70000843C8F828003E46207880072DD5606F8B
:104E8000052809D8DFE800F0040E1404040400BF6C
:104E90002F46ADB918E000BF012501272078400753
:104EA0001FD44DE004F10800012106F091F804E060
:104EB00004F12800012106F01FF905462F461DB117
:104EC000207840070DD43BE0D8F82800616F20F02F
:104ED000070000250843C8F8280037462078400717
:104EE0002ED5D4F89000052808D8DFE800F0030D8F
:104EF000130303032E46ADB918E000BF01260125B8
:104F00002078800620D451E004F10800012106F049
:104F10005FF804E004F12800012106F0EDF80546F1
:104F20002E461DB1207880060ED43FE0D8F82C0024
:104F3000D4F8901020F0070000250843C8F82C0092
:104F40003E462078800631D5D4F88C004FEA307088
:104F5000052809D8DFE800F0040E1404040400BF9B
:104F60002F46ADB918E000BF012701252078400683
:104F700020D451E004F10800002106F029F804E0F3
:104F800004F12800022106F0B7F805462F461DB1AE
:104F9000207840060ED43FE0D8F82800D4F88C10D2
:104FA00020F0E04000250843C8F828003746207864
:104FB000400631D5D4F898004FEAB020052809D82A
:104FC000DFE800F0040E1404040400BF2E46ADB95F
:104FD00018E000BF012601252078000620D454E007
:104FE00004F10800002105F0F3FF04E004F12800BB
:104FF000022106F081F805462E461DB120780006F4
:105000000ED442E0D8F82C00D4F8981020F4E050E8
:1050100000250843C8F82C003E462078000634D509
:10502000D4F89C004FEA703005280FD8DFE800F074
:1050300004141A04040400BF2F46E5B120680107D8
:1050400027D4C1063ED4000355D475E001270125BD
:1050500020680107F5D51CE004F10800002105F0E7
:10506000B7FF04E004F12800022106F045F80546E8
:10507000002D2F46E2D1D8F82C00D4F89C1020F453
:10508000604000250843C8F82C0037462068010717
:10509000D7D5D4F88000B0F5805F09D104F128009D
:1050A000022106F029F8002818BF0127D4F8800053
:1050B000D8F8281021F440510843C8F82800206887
:1050C000C106C0D5D4F89400B0F5807F09D104F1B1
:1050D0002800022106F010F8002818BF0127D4F894
:1050E0009400D8F82C1021F440710843C8F82C0023
:1050F0002068000320D5D4F8A000B0F5003F0FD001
:10510000B0F5803F06D078BB04F10800002105F01F
:105110005FFF04E004F12800022105F0EDFF0546E1
:105120002E4655B9D8F82C00D4F8A01020F4403001
:1051300000250843C8F82C003E46A07840072BD530
:10514000D4F88400B0F5401F0BD0B0F5001F11D08B
:10515000B0F5801F2AD1D8F8000040F40030C8F81C
:1051600000002F46CDB90DE001260125A0784007AB
:10517000E6D411E004F12800012105F0BDFF054649
:105180002F4655B9D8F82800D4F8841020F44010E0
:1051900000250843C8F828003746A078C0070AD180
:1051A0003E462168880016D533E000BF012701255F
:1051B000A078C007F4D0206DB0F5803F10D018BBA8
:1051C000D8F8000040F40030C8F800002E4685B141
:1051D000216888001DD460688A0326D465E000BF7A
:1051E00004F10800022105F0F3FE0546002D2E46CD
:1051F000EED1D8F82000216D20F48030002508433E
:10520000C8F82000CCE700BF0126012521688800EE
:10521000E1D504F12800022105F06EFF002818BF37
:105220000126D4E900108A033FD5E26F6FF0010335
:1052300003EB3223022B0BD34FEA322343B1012B72
:1052400040F0AA80D8F8003043F40033C8F80030AA
:1052500025B3CA022CD48A0234D44A003CD4CA0FE3
:1052600049D1090251D4C1075AD1810763D44107FA
:105270006CD4010776D4C10600F18080800607D582
:1052800004F12800022105F037FF002818BF01258E
:10529000002D18BF01252846BDE8F087D8F8283032
:1052A00023F440731A43C8F828203546CA02D2D5E1
:1052B000D8F82420236F22F000421A43C8F8242093
:1052C0008A02CAD5D8F82420A36E22F080721A432D
:1052D000C8F824204A00C2D558F81C2C22F40042F9
:1052E00048F81C2CD4F8B42058F81C3C1A4348F851
:1052F0001C2CCA0FB5D0D8F82020636D22F0405284
:105300001A43C8F820200902ADD5D8F82810D4F8DF
:10531000882021F440011143C8F82810C107A4D007
:1053200004F10800002105F053FE002818BF0546CF
:10533000606881079BD504F10800012105F048FE53
:10534000002818BF05466068410792D504F108009F
:10535000022105F03DFE002818BF054660680107E0
:105360007FF589AF04F12800002105F0C5FE002873
:1053700018BF05466068C1067FF580AF04F12800BC
:10538000012105F0B9FE002818BF054660688006B7
:105390007FF57EAF74E700BF0125CA027FF55BAFE2
:1053A00086E700BFD4F8B0004FF6CF7358F81C2C36
:1053B000C0F2FF0300F4407122F47C5203EA1013A0
:1053C0006FF31F30B1F5407F08BF1A43002548F83E
:1053D0001C2CD8F844100843C8F84400FFF7CBBC95
:1053E0002DE9F04381B0002800F02A8142F2000844
:1053F0000446C5F200288946D8F8000000F00F00E6
:1054000088420ED2D8F8000020F00F0040EA0900D0
:10541000C8F80000D8F8000000F00F00484540F040
:105420000F81206844F218474107C5F602070AD5E4
:1054300021693A6802F07002914204D93A6822F078
:1054400070021143396001070AD561697A6802F078
:105450007002914204D97A6822F070021143796097
:10546000C1060AD5A1697A6802F4E062914204D9C2
:105470007A6822F4E0621143796081060AD5E16915
:10548000BA6802F07002914204D9BA6822F0700240
:105490001143B96010F002010AD0E2683B6803F0E2
:1054A0000F039A4204D93B6823F00F031A433A6072
:1054B000C20746D0386820F47061D4E9010201289F
:1054C00041EA0201396009D003280DD0022811D128
:1054D00057F8181C890340F1B38010E057F8181CE6
:1054E000C90540F1AD800AE057F8181C890140F168
:1054F000A78004E057F8181C490740F1A18057F82D
:10550000081C21F00701084347F8080CFEF74CFF80
:10551000064641F2883500BF57F8080C616800F074
:105520003800B0EBC10F09D0FEF73EFF801BA84248
:10553000F2D9032001B0BDE8F08300BF206800F07D
:10554000020151B1E1683A6802F00F02914204D2BF
:105550003A6822F00F0211433960D8F8001001F0C8
:105560000F0149450DD9D8F8001021F00F0141EA8B
:105570000901C8F80010D8F8001001F00F014945E2
:105580005ED141070AD521693A6802F07002914262
:1055900004D23A6822F070021143396001070AD53B
:1055A00061697A6802F07002914204D27A6822F04E
:1055B000700211437960C1060AD5A1697A6802F4C4
:1055C000E062914204D27A6822F4E0621143796089
:1055D00080060AD5E069B96801F07001884204D2FA
:1055E000B96821F070010843B86000F0E1F839684B
:1055F00040F234133A68C0F60103C1F3032102F00C
:105600000F02595C9A5C01F01F0120FA01F102F0CF
:105610001F0040F2AC0221FA00F0C2F2004210601A
:1056200040F2A40040F2A802C2F20040C2F20042DE
:105630000068116001B0BDE8F043FEF701BF00BF94
:10564000012001B0BDE8F0833F22026044F218421D
:10565000C5F6020252F8083C03F0070343601368E2
:1056600003F470638360136803F00F03C36013686F
:1056700003F070030361536803F0700343615368E0
:1056800003F4E0638361926802F07002C26142F247
:105690000000C5F20020006800F00F0008607047AD
:1056A00080B500F085F844F2184140F23413C5F695
:1056B0000201C0F601030A68096801F00F01C2F394
:1056C0000322595C9A5C02F01F0220FA02F201F0F8
:1056D0001F0040F2AC0122FA00F0C2F20041086063
:1056E00040F2A801C2F200410A6080BD0000000043
:1056F00080B500F05DF844F2184C40F23411C5F664
:10570000020CC0F60101DCF80020DCF8003003F0E8
:105710000F03C2F30322CB5C8A5C02F01F02D0406D
:1057200003F01F0240F2AC0320FA02F2C2F200437F
:105730001A6040F2A803C2F200431860DCF80400CB
:10574000C0F30210085C00F01F0022FA00F080BDD8
:1057500080B500F02DF844F2184C40F23411C5F633
:10576000020CC0F60101DCF80020DCF8003003F088
:105770000F03C2F30322CB5C8A5C02F01F02D0400D
:1057800003F01F0240F2AC0320FA02F2C2F200431F
:105790001A6040F2A803C2F200431860DCF804006B
:1057A000C0F30220085C00F01F0022FA00F080BD68
:1057B00044F20041C5F602010869C0F3C2000328A3
:1057C00010D002282ED098BB0868800649F200004D
:1057D000C0F2D03058BF70470968C1F3C101C8405A
:1057E000704700BF8A6A886AC0F3051CC86ABCF1AA
:1057F000000F4B6B22D000F0010002F00302404288
:10580000022A00EAD3006FF35F3000EE100AB8EE10
:10581000400A15D0C2B90868800619D49FED281A2D
:1058200023E000BF43F20060C0F26E10704700BF7B
:1058300040F60010C0F23D00704700BF00207047E6
:105840009FED1E1A11E000BF9FED1B1A0DE000BF77
:10585000086849F20002C0F2D032C0F3C10022FA57
:1058600000F001EE100AB8EE411A086B9FED153AF0
:105870006FF35F2002EE100A086BC0F34620B8EE0B
:10588000422A013000EE032A00EE10CAB7EE003AB9
:10589000B8EE400A81EE000A32EE031A20EE010A49
:1058A00001EE100AB8EE411A80EE010ABCEEC00A01
:1058B00010EE100A704700BF0024744A001BB74B5B
:1058C0000024744C00000039F0B581B0002800F0CD
:1058D000D5800446007844F20046C007C5F60206AB
:1058E00022D12078800768D5306910F03801B06A7D
:1058F00042D0182908BF5FEA80703DD0E068316867
:10590000002800F0258121F0190108433060FEF7DE
:105910004BFD05463068400748D4FEF745FD401B67
:105920000228F7D977E100BF306900F03801B06A8A
:10593000102905D018290BD100F00300022807D147
:1059400030688003CDD560680028CAD196E000BFDA
:105950006068002800F03281B0F5A02F00F0468189
:10596000B0F5803F00F04681306820F48030306030
:10597000306820F4802040E130684007E06801D5BD
:1059800000287BD0316821F0190108433060FEF710
:105990000BFD05463068400708D4FEF705FD401BA7
:1059A00002284FF00300F5D901B0F0BD70682169FD
:1059B00020F0FE4040EA016070602078C00619D5F2
:1059C000306900F03801B06A082906D0182940F083
:1059D000818000F0030001287CD13068C00502D529
:1059E000E06980284AD1F068216A20F07C5040EAC2
:1059F0000160F0602078000744D42078800655D4F8
:105A00002078400700F17E80656A9DB3306900F020
:105A10003800182840F01481012DB16A306B2DD068
:105A200001F00302A36A9A4228D1C1F30511E26A88
:105A3000914223D10146226B6FF35F21013A9142DB
:105A40001CD1C0F34622616B01398A4216D1C0F3E2
:105A50000642A16B01398A4210D1C0F30660E16BA6
:105A6000013988420AD1706BA16CC0F3CC0081422D
:105A700040F09C81002001B0F0BD00BF012001B0CA
:105A8000F0BD00BF60690028706F4FD040F001008A
:105A90007067FEF789FC0546706F8007ADD4FEF78E
:105AA00083FC401B0228F7D9B5E000BFA06900289D
:105AB000306871D040F480503060FEF775FC0546C8
:105AC000306880049CD4FEF76FFC401B0228F7D995
:105AD000A1E000BFE0690028306800F09F8040F03E
